{
  "_format": "hh-sol-artifact-1",
  "contractName": "Outlier",
  "sourceName": "contracts/Outlier.sol",
  "abi": [
    {
      "inputs": [
        {
          "internalType": "address",
          "name": "_accessControl",
          "type": "address"
        }
      ],
      "stateMutability": "nonpayable",
      "type": "constructor"
    },
    {
      "anonymous": false,
      "inputs": [
        {
          "indexed": true,
          "internalType": "address",
          "name": "owner",
          "type": "address"
        },
        {
          "indexed": true,
          "internalType": "address",
          "name": "approved",
          "type": "address"
        },
        {
          "indexed": true,
          "internalType": "uint256",
          "name": "tokenId",
          "type": "uint256"
        }
      ],
      "name": "Approval",
      "type": "event"
    },
    {
      "anonymous": false,
      "inputs": [
        {
          "indexed": true,
          "internalType": "address",
          "name": "owner",
          "type": "address"
        },
        {
          "indexed": true,
          "internalType": "address",
          "name": "operator",
          "type": "address"
        },
        {
          "indexed": false,
          "internalType": "bool",
          "name": "approved",
          "type": "bool"
        }
      ],
      "name": "ApprovalForAll",
      "type": "event"
    },
    {
      "anonymous": false,
      "inputs": [
        {
          "indexed": true,
          "internalType": "uint256",
          "name": "token",
          "type": "uint256"
        },
        {
          "indexed": true,
          "internalType": "string",
          "name": "commitHash",
          "type": "string"
        },
        {
          "indexed": true,
          "internalType": "address",
          "name": "triggeredBy",
          "type": "address"
        }
      ],
      "name": "NewBuild",
      "type": "event"
    },
    {
      "anonymous": false,
      "inputs": [
        {
          "indexed": true,
          "internalType": "uint256",
          "name": "token",
          "type": "uint256"
        },
        {
          "indexed": true,
          "internalType": "uint256",
          "name": "royalty",
          "type": "uint256"
        },
        {
          "indexed": true,
          "internalType": "address",
          "name": "triggeredBy",
          "type": "address"
        }
      ],
      "name": "NewRoyaltySet",
      "type": "event"
    },
    {
      "anonymous": false,
      "inputs": [
        {
          "indexed": true,
          "internalType": "uint256",
          "name": "token",
          "type": "uint256"
        },
        {
          "indexed": true,
          "internalType": "string",
          "name": "animation",
          "type": "string"
        },
        {
          "indexed": true,
          "internalType": "address",
          "name": "triggeredBy",
          "type": "address"
        }
      ],
      "name": "NewTokenAnimation",
      "type": "event"
    },
    {
      "anonymous": false,
      "inputs": [
        {
          "indexed": true,
          "internalType": "uint256",
          "name": "token",
          "type": "uint256"
        },
        {
          "indexed": true,
          "internalType": "string",
          "name": "description",
          "type": "string"
        },
        {
          "indexed": true,
          "internalType": "address",
          "name": "triggeredBy",
          "type": "address"
        }
      ],
      "name": "NewTokenDescription",
      "type": "event"
    },
    {
      "anonymous": false,
      "inputs": [
        {
          "indexed": true,
          "internalType": "uint256",
          "name": "token",
          "type": "uint256"
        },
        {
          "indexed": true,
          "internalType": "string",
          "name": "ENS",
          "type": "string"
        },
        {
          "indexed": true,
          "internalType": "address",
          "name": "triggeredBy",
          "type": "address"
        }
      ],
      "name": "NewTokenENS",
      "type": "event"
    },
    {
      "anonymous": false,
      "inputs": [
        {
          "indexed": true,
          "internalType": "uint256",
          "name": "token",
          "type": "uint256"
        },
        {
          "indexed": true,
          "internalType": "string",
          "name": "externalURL",
          "type": "string"
        },
        {
          "indexed": true,
          "internalType": "address",
          "name": "triggeredBy",
          "type": "address"
        }
      ],
      "name": "NewTokenExternalURL",
      "type": "event"
    },
    {
      "anonymous": false,
      "inputs": [
        {
          "indexed": true,
          "internalType": "uint256",
          "name": "token",
          "type": "uint256"
        },
        {
          "indexed": true,
          "internalType": "string",
          "name": "image",
          "type": "string"
        },
        {
          "indexed": true,
          "internalType": "address",
          "name": "triggeredBy",
          "type": "address"
        }
      ],
      "name": "NewTokenImage",
      "type": "event"
    },
    {
      "anonymous": false,
      "inputs": [
        {
          "indexed": true,
          "internalType": "uint256",
          "name": "token",
          "type": "uint256"
        },
        {
          "indexed": true,
          "internalType": "string",
          "name": "name",
          "type": "string"
        },
        {
          "indexed": true,
          "internalType": "address",
          "name": "triggeredBy",
          "type": "address"
        }
      ],
      "name": "NewTokenName",
      "type": "event"
    },
    {
      "anonymous": false,
      "inputs": [
        {
          "indexed": true,
          "internalType": "uint256",
          "name": "token",
          "type": "uint256"
        },
        {
          "indexed": true,
          "internalType": "uint256",
          "name": "value",
          "type": "uint256"
        },
        {
          "indexed": true,
          "internalType": "address",
          "name": "triggeredBy",
          "type": "address"
        }
      ],
      "name": "NewTokenValue",
      "type": "event"
    },
    {
      "anonymous": false,
      "inputs": [
        {
          "indexed": true,
          "internalType": "address",
          "name": "previousOwner",
          "type": "address"
        },
        {
          "indexed": true,
          "internalType": "address",
          "name": "newOwner",
          "type": "address"
        }
      ],
      "name": "OwnershipTransferred",
      "type": "event"
    },
    {
      "anonymous": false,
      "inputs": [
        {
          "indexed": true,
          "internalType": "uint256",
          "name": "token",
          "type": "uint256"
        },
        {
          "indexed": true,
          "internalType": "uint256",
          "name": "value",
          "type": "uint256"
        },
        {
          "indexed": true,
          "internalType": "address",
          "name": "triggeredBy",
          "type": "address"
        }
      ],
      "name": "RoyaltySent",
      "type": "event"
    },
    {
      "anonymous": false,
      "inputs": [
        {
          "indexed": true,
          "internalType": "uint256",
          "name": "token",
          "type": "uint256"
        },
        {
          "indexed": true,
          "internalType": "uint256",
          "name": "value",
          "type": "uint256"
        },
        {
          "indexed": true,
          "internalType": "address",
          "name": "triggeredBy",
          "type": "address"
        }
      ],
      "name": "TokenTransfer",
      "type": "event"
    },
    {
      "anonymous": false,
      "inputs": [
        {
          "indexed": true,
          "internalType": "address",
          "name": "from",
          "type": "address"
        },
        {
          "indexed": true,
          "internalType": "address",
          "name": "to",
          "type": "address"
        },
        {
          "indexed": true,
          "internalType": "uint256",
          "name": "tokenId",
          "type": "uint256"
        }
      ],
      "name": "Transfer",
      "type": "event"
    },
    {
      "stateMutability": "payable",
      "type": "fallback"
    },
    {
      "inputs": [
        {
          "internalType": "uint256",
          "name": "tokenId",
          "type": "uint256"
        }
      ],
      "name": "_getTokenRoyalty",
      "outputs": [
        {
          "internalType": "address",
          "name": "",
          "type": "address"
        },
        {
          "internalType": "uint96",
          "name": "",
          "type": "uint96"
        }
      ],
      "stateMutability": "view",
      "type": "function"
    },
    {
      "inputs": [],
      "name": "_main",
      "outputs": [
        {
          "internalType": "string",
          "name": "name",
          "type": "string"
        },
        {
          "internalType": "string",
          "name": "description",
          "type": "string"
        },
        {
          "internalType": "string",
          "name": "image",
          "type": "string"
        },
        {
          "internalType": "string",
          "name": "externalLink",
          "type": "string"
        }
      ],
      "stateMutability": "view",
      "type": "function"
    },
    {
      "inputs": [
        {
          "internalType": "address",
          "name": "to",
          "type": "address"
        },
        {
          "internalType": "uint256",
          "name": "tokenId",
          "type": "uint256"
        }
      ],
      "name": "approve",
      "outputs": [],
      "stateMutability": "nonpayable",
      "type": "function"
    },
    {
      "inputs": [],
      "name": "artistPaymentPercentage",
      "outputs": [
        {
          "internalType": "uint256",
          "name": "",
          "type": "uint256"
        }
      ],
      "stateMutability": "view",
      "type": "function"
    },
    {
      "inputs": [
        {
          "internalType": "address",
          "name": "owner",
          "type": "address"
        }
      ],
      "name": "balanceOf",
      "outputs": [
        {
          "internalType": "uint256",
          "name": "",
          "type": "uint256"
        }
      ],
      "stateMutability": "view",
      "type": "function"
    },
    {
      "inputs": [
        {
          "internalType": "uint256",
          "name": "tokenId",
          "type": "uint256"
        }
      ],
      "name": "burn",
      "outputs": [],
      "stateMutability": "nonpayable",
      "type": "function"
    },
    {
      "inputs": [],
      "name": "contractURI",
      "outputs": [
        {
          "internalType": "string",
          "name": "",
          "type": "string"
        }
      ],
      "stateMutability": "view",
      "type": "function"
    },
    {
      "inputs": [
        {
          "internalType": "uint256",
          "name": "tokenId",
          "type": "uint256"
        }
      ],
      "name": "getApproved",
      "outputs": [
        {
          "internalType": "address",
          "name": "",
          "type": "address"
        }
      ],
      "stateMutability": "view",
      "type": "function"
    },
    {
      "inputs": [],
      "name": "getBalance",
      "outputs": [
        {
          "internalType": "uint256",
          "name": "",
          "type": "uint256"
        }
      ],
      "stateMutability": "view",
      "type": "function"
    },
    {
      "inputs": [
        {
          "internalType": "address",
          "name": "owner",
          "type": "address"
        },
        {
          "internalType": "address",
          "name": "operator",
          "type": "address"
        }
      ],
      "name": "isApprovedForAll",
      "outputs": [
        {
          "internalType": "bool",
          "name": "",
          "type": "bool"
        }
      ],
      "stateMutability": "view",
      "type": "function"
    },
    {
      "inputs": [
        {
          "internalType": "address",
          "name": "to",
          "type": "address"
        },
        {
          "internalType": "string",
          "name": "name",
          "type": "string"
        },
        {
          "internalType": "string",
          "name": "description",
          "type": "string"
        },
        {
          "internalType": "string",
          "name": "image",
          "type": "string"
        },
        {
          "internalType": "string",
          "name": "externalURL",
          "type": "string"
        },
        {
          "internalType": "string",
          "name": "ENS",
          "type": "string"
        },
        {
          "internalType": "string",
          "name": "commitHash",
          "type": "string"
        },
        {
          "internalType": "string",
          "name": "gitRepository",
          "type": "string"
        },
        {
          "components": [
            {
              "internalType": "string",
              "name": "html",
              "type": "string"
            },
            {
              "internalType": "string",
              "name": "css",
              "type": "string"
            },
            {
              "internalType": "string",
              "name": "js",
              "type": "string"
            }
          ],
          "internalType": "struct Outlier.Animation",
          "name": "animation",
          "type": "tuple"
        }
      ],
      "name": "mint",
      "outputs": [
        {
          "internalType": "uint256",
          "name": "",
          "type": "uint256"
        }
      ],
      "stateMutability": "payable",
      "type": "function"
    },
    {
      "inputs": [],
      "name": "name",
      "outputs": [
        {
          "internalType": "string",
          "name": "",
          "type": "string"
        }
      ],
      "stateMutability": "view",
      "type": "function"
    },
    {
      "inputs": [],
      "name": "owner",
      "outputs": [
        {
          "internalType": "address",
          "name": "",
          "type": "address"
        }
      ],
      "stateMutability": "view",
      "type": "function"
    },
    {
      "inputs": [
        {
          "internalType": "uint256",
          "name": "tokenId",
          "type": "uint256"
        }
      ],
      "name": "ownerOf",
      "outputs": [
        {
          "internalType": "address",
          "name": "",
          "type": "address"
        }
      ],
      "stateMutability": "view",
      "type": "function"
    },
    {
      "inputs": [
        {
          "components": [
            {
              "internalType": "string",
              "name": "html",
              "type": "string"
            },
            {
              "internalType": "string",
              "name": "css",
              "type": "string"
            },
            {
              "internalType": "string",
              "name": "js",
              "type": "string"
            }
          ],
          "internalType": "struct Outlier.Animation",
          "name": "animation",
          "type": "tuple"
        }
      ],
      "name": "parseAnimation",
      "outputs": [
        {
          "internalType": "string",
          "name": "",
          "type": "string"
        }
      ],
      "stateMutability": "view",
      "type": "function"
    },
    {
      "inputs": [
        {
          "internalType": "uint256",
          "name": "tokenId",
          "type": "uint256"
        }
      ],
      "name": "removeTokenValue",
      "outputs": [],
      "stateMutability": "nonpayable",
      "type": "function"
    },
    {
      "inputs": [],
      "name": "renounceOwnership",
      "outputs": [],
      "stateMutability": "nonpayable",
      "type": "function"
    },
    {
      "inputs": [
        {
          "internalType": "uint256",
          "name": "tokenId",
          "type": "uint256"
        }
      ],
      "name": "resetTokenRoyalty",
      "outputs": [],
      "stateMutability": "nonpayable",
      "type": "function"
    },
    {
      "inputs": [
        {
          "internalType": "uint256",
          "name": "tokenId",
          "type": "uint256"
        },
        {
          "internalType": "uint256",
          "name": "salePrice",
          "type": "uint256"
        }
      ],
      "name": "royaltyInfo",
      "outputs": [
        {
          "internalType": "address",
          "name": "",
          "type": "address"
        },
        {
          "internalType": "uint256",
          "name": "",
          "type": "uint256"
        }
      ],
      "stateMutability": "view",
      "type": "function"
    },
    {
      "inputs": [
        {
          "internalType": "address",
          "name": "from",
          "type": "address"
        },
        {
          "internalType": "address",
          "name": "to",
          "type": "address"
        },
        {
          "internalType": "uint256",
          "name": "tokenId",
          "type": "uint256"
        }
      ],
      "name": "safeTransferFrom",
      "outputs": [],
      "stateMutability": "nonpayable",
      "type": "function"
    },
    {
      "inputs": [
        {
          "internalType": "address",
          "name": "from",
          "type": "address"
        },
        {
          "internalType": "address",
          "name": "to",
          "type": "address"
        },
        {
          "internalType": "uint256",
          "name": "tokenId",
          "type": "uint256"
        },
        {
          "internalType": "bytes",
          "name": "_data",
          "type": "bytes"
        }
      ],
      "name": "safeTransferFrom",
      "outputs": [],
      "stateMutability": "nonpayable",
      "type": "function"
    },
    {
      "inputs": [],
      "name": "selfDestruct",
      "outputs": [],
      "stateMutability": "nonpayable",
      "type": "function"
    },
    {
      "inputs": [
        {
          "internalType": "address",
          "name": "_accessControlAddress",
          "type": "address"
        }
      ],
      "name": "setAccessControl",
      "outputs": [],
      "stateMutability": "nonpayable",
      "type": "function"
    },
    {
      "inputs": [
        {
          "internalType": "address",
          "name": "operator",
          "type": "address"
        },
        {
          "internalType": "bool",
          "name": "approved",
          "type": "bool"
        }
      ],
      "name": "setApprovalForAll",
      "outputs": [],
      "stateMutability": "nonpayable",
      "type": "function"
    },
    {
      "inputs": [
        {
          "internalType": "string",
          "name": "name",
          "type": "string"
        },
        {
          "internalType": "string",
          "name": "description",
          "type": "string"
        },
        {
          "internalType": "string",
          "name": "image",
          "type": "string"
        },
        {
          "internalType": "string",
          "name": "externalLink",
          "type": "string"
        }
      ],
      "name": "setContract",
      "outputs": [],
      "stateMutability": "nonpayable",
      "type": "function"
    },
    {
      "inputs": [
        {
          "internalType": "uint256",
          "name": "tokenId",
          "type": "uint256"
        },
        {
          "internalType": "string",
          "name": "html",
          "type": "string"
        },
        {
          "internalType": "string",
          "name": "css",
          "type": "string"
        },
        {
          "internalType": "string",
          "name": "js",
          "type": "string"
        }
      ],
      "name": "setTokenAnimation",
      "outputs": [],
      "stateMutability": "nonpayable",
      "type": "function"
    },
    {
      "inputs": [
        {
          "internalType": "uint256",
          "name": "tokenId",
          "type": "uint256"
        },
        {
          "internalType": "string",
          "name": "_commitHash",
          "type": "string"
        },
        {
          "internalType": "string",
          "name": "_gitRepository",
          "type": "string"
        }
      ],
      "name": "setTokenBuild",
      "outputs": [],
      "stateMutability": "nonpayable",
      "type": "function"
    },
    {
      "inputs": [
        {
          "internalType": "address",
          "name": "_tokenContractAddress",
          "type": "address"
        }
      ],
      "name": "setTokenContract",
      "outputs": [],
      "stateMutability": "nonpayable",
      "type": "function"
    },
    {
      "inputs": [
        {
          "internalType": "uint256",
          "name": "tokenId",
          "type": "uint256"
        },
        {
          "internalType": "string",
          "name": "_tokenDescription",
          "type": "string"
        }
      ],
      "name": "setTokenDescription",
      "outputs": [],
      "stateMutability": "nonpayable",
      "type": "function"
    },
    {
      "inputs": [
        {
          "internalType": "uint256",
          "name": "tokenId",
          "type": "uint256"
        },
        {
          "internalType": "string",
          "name": "_tokenENS",
          "type": "string"
        }
      ],
      "name": "setTokenENS",
      "outputs": [],
      "stateMutability": "nonpayable",
      "type": "function"
    },
    {
      "inputs": [
        {
          "internalType": "uint256",
          "name": "tokenId",
          "type": "uint256"
        },
        {
          "internalType": "string",
          "name": "_tokenExternalURL",
          "type": "string"
        }
      ],
      "name": "setTokenExternalURL",
      "outputs": [],
      "stateMutability": "nonpayable",
      "type": "function"
    },
    {
      "inputs": [
        {
          "internalType": "uint256",
          "name": "tokenId",
          "type": "uint256"
        },
        {
          "internalType": "string",
          "name": "_tokenImage",
          "type": "string"
        }
      ],
      "name": "setTokenImage",
      "outputs": [],
      "stateMutability": "nonpayable",
      "type": "function"
    },
    {
      "inputs": [
        {
          "internalType": "uint256",
          "name": "tokenId",
          "type": "uint256"
        },
        {
          "internalType": "string",
          "name": "_tokenName",
          "type": "string"
        }
      ],
      "name": "setTokenName",
      "outputs": [],
      "stateMutability": "nonpayable",
      "type": "function"
    },
    {
      "inputs": [
        {
          "internalType": "address",
          "name": "to",
          "type": "address"
        },
        {
          "internalType": "uint256",
          "name": "tokenId",
          "type": "uint256"
        },
        {
          "internalType": "uint96",
          "name": "value",
          "type": "uint96"
        }
      ],
      "name": "setTokenRoyalty",
      "outputs": [],
      "stateMutability": "nonpayable",
      "type": "function"
    },
    {
      "inputs": [
        {
          "internalType": "address",
          "name": "marketContract",
          "type": "address"
        },
        {
          "internalType": "uint256",
          "name": "tokenId",
          "type": "uint256"
        },
        {
          "internalType": "uint256",
          "name": "_tokenValue",
          "type": "uint256"
        }
      ],
      "name": "setTokenValue",
      "outputs": [],
      "stateMutability": "nonpayable",
      "type": "function"
    },
    {
      "inputs": [
        {
          "internalType": "uint256",
          "name": "_tokensPerEth",
          "type": "uint256"
        }
      ],
      "name": "setTokensPerEth",
      "outputs": [],
      "stateMutability": "nonpayable",
      "type": "function"
    },
    {
      "inputs": [
        {
          "internalType": "bytes4",
          "name": "interfaceId",
          "type": "bytes4"
        }
      ],
      "name": "supportsInterface",
      "outputs": [
        {
          "internalType": "bool",
          "name": "",
          "type": "bool"
        }
      ],
      "stateMutability": "view",
      "type": "function"
    },
    {
      "inputs": [],
      "name": "symbol",
      "outputs": [
        {
          "internalType": "string",
          "name": "",
          "type": "string"
        }
      ],
      "stateMutability": "view",
      "type": "function"
    },
    {
      "inputs": [
        {
          "internalType": "uint256",
          "name": "index",
          "type": "uint256"
        }
      ],
      "name": "tokenByIndex",
      "outputs": [
        {
          "internalType": "uint256",
          "name": "",
          "type": "uint256"
        }
      ],
      "stateMutability": "view",
      "type": "function"
    },
    {
      "inputs": [
        {
          "internalType": "address",
          "name": "owner",
          "type": "address"
        },
        {
          "internalType": "uint256",
          "name": "index",
          "type": "uint256"
        }
      ],
      "name": "tokenOfOwnerByIndex",
      "outputs": [
        {
          "internalType": "uint256",
          "name": "",
          "type": "uint256"
        }
      ],
      "stateMutability": "view",
      "type": "function"
    },
    {
      "inputs": [
        {
          "internalType": "uint256",
          "name": "tokenId",
          "type": "uint256"
        }
      ],
      "name": "tokenURI",
      "outputs": [
        {
          "internalType": "string",
          "name": "",
          "type": "string"
        }
      ],
      "stateMutability": "view",
      "type": "function"
    },
    {
      "inputs": [],
      "name": "tokensPerEth",
      "outputs": [
        {
          "internalType": "uint256",
          "name": "",
          "type": "uint256"
        }
      ],
      "stateMutability": "view",
      "type": "function"
    },
    {
      "inputs": [],
      "name": "totalSupply",
      "outputs": [
        {
          "internalType": "uint256",
          "name": "",
          "type": "uint256"
        }
      ],
      "stateMutability": "view",
      "type": "function"
    },
    {
      "inputs": [
        {
          "internalType": "address",
          "name": "to",
          "type": "address"
        },
        {
          "internalType": "uint256",
          "name": "tokenId",
          "type": "uint256"
        }
      ],
      "name": "transactionNFA",
      "outputs": [],
      "stateMutability": "payable",
      "type": "function"
    },
    {
      "inputs": [
        {
          "internalType": "address",
          "name": "to",
          "type": "address"
        },
        {
          "internalType": "uint256",
          "name": "tokenId",
          "type": "uint256"
        }
      ],
      "name": "transactionNFAERC20",
      "outputs": [],
      "stateMutability": "nonpayable",
      "type": "function"
    },
    {
      "inputs": [
        {
          "internalType": "address",
          "name": "from",
          "type": "address"
        },
        {
          "internalType": "address",
          "name": "to",
          "type": "address"
        },
        {
          "internalType": "uint256",
          "name": "tokenId",
          "type": "uint256"
        }
      ],
      "name": "transferFrom",
      "outputs": [],
      "stateMutability": "nonpayable",
      "type": "function"
    },
    {
      "inputs": [
        {
          "internalType": "address",
          "name": "newOwner",
          "type": "address"
        }
      ],
      "name": "transferOwnership",
      "outputs": [],
      "stateMutability": "nonpayable",
      "type": "function"
    },
    {
      "inputs": [
        {
          "internalType": "uint256",
          "name": "_artistPaymentPercentage",
          "type": "uint256"
        }
      ],
      "name": "updateArtistPaymentPercentage",
      "outputs": [],
      "stateMutability": "nonpayable",
      "type": "function"
    },
    {
      "inputs": [],
      "name": "withdraw",
      "outputs": [],
      "stateMutability": "nonpayable",
      "type": "function"
    },
    {
      "inputs": [],
      "name": "withdrawERC20",
      "outputs": [],
      "stateMutability": "nonpayable",
      "type": "function"
    },
    {
      "stateMutability": "payable",
      "type": "receive"
    }
  ],
  "bytecode": "0x60806040526064601055605a6016553480156200001b57600080fd5b50604051620055d5380380620055d58339810160408190526200003e91620001e6565b604080518082018252600781526627aaaa2624a2a960c91b60208083019182528351808501909452600284526113d360f21b908401528151919291620000879160009162000140565b5080516200009d90600190602084019062000140565b505050620000ba620000b4620000ea60201b60201c565b620000ee565b600f80546001600160a01b039092166001600160a01b03199283168117909155600e805490921617905562000255565b3390565b600c80546001600160a01b038381166001600160a01b0319831681179093556040519116919082907f8be0079c531659141344cd1fd0a4f28419497f9722a3daafe3b4186f6b6457e090600090a35050565b8280546200014e9062000218565b90600052602060002090601f016020900481019282620001725760008555620001bd565b82601f106200018d57805160ff1916838001178555620001bd565b82800160010185558215620001bd579182015b82811115620001bd578251825591602001919060010190620001a0565b50620001cb929150620001cf565b5090565b5b80821115620001cb5760008155600101620001d0565b600060208284031215620001f957600080fd5b81516001600160a01b03811681146200021157600080fd5b9392505050565b600181811c908216806200022d57607f821691505b602082108114156200024f57634e487b7160e01b600052602260045260246000fd5b50919050565b61537080620002656000396000f3fe60806040526004361061023a5760003560e01c806301ffc9a71461024357806306fdde0314610278578063081812fc1461029a578063095ea7b3146102c75780630cb0ee98146102e757806312065fe01461030757806318160ddd146103245780631821ddb61461033957806319129e5a1461035957806323b872dd14610379578063246a908b146103995780632a55205a146103b95780632ed6d5e8146103e75780632f745c59146103fc5780633806f1521461041c5780633ccfd60b1461043c57806342842e0e1461045157806342966c68146104715780634e08b9ad146104915780634f6ccce7146104b157806356238b02146104d15780636352211e146104f157806364140ec01461051157806370a0823114610531578063715018a6146105515780637469d0681461056657806377bc8f4d1461058b57806378278cca146105a15780637e91fd4d146105c15780638a616bc0146105e15780638da5cb5b1461060157806393e2aef41461061657806395d89b411461065d5780639b503615146106725780639cb8a26a14610685578063a22cb4651461069a578063a61b1747146106ba578063a6a79489146106da578063a7ad21a8146106ed578063b88d4fde1461070d578063bbcd5bbe1461072d578063c0f871db1461074d578063c87b56dd1461076d578063cbdd69b51461078d578063cdb0e89e146107a3578063e8a3d485146107c3578063e985e9c5146107d8578063f2fde38b146107f8578063f3310a7a14610818578063f93151771461083857005b3661024157005b005b34801561024f57600080fd5b5061026361025e36600461453b565b610858565b60405190151581526020015b60405180910390f35b34801561028457600080fd5b5061028d610869565b60405161026f9190614f14565b3480156102a657600080fd5b506102ba6102b536600461466a565b6108fb565b60405161026f9190614e78565b3480156102d357600080fd5b506102416102e2366004614475565b610988565b3480156102f357600080fd5b506102416103023660046144d2565b610a99565b34801561031357600080fd5b50475b60405190815260200161026f565b34801561033057600080fd5b50600854610316565b34801561034557600080fd5b5061024161035436600461474e565b610b7a565b34801561036557600080fd5b506102416103743660046141e9565b610cc4565b34801561038557600080fd5b50610241610394366004614237565b610d15565b3480156103a557600080fd5b506102416103b436600461469c565b610d46565b3480156103c557600080fd5b506103d96103d4366004614782565b610df4565b60405161026f929190614eed565b3480156103f357600080fd5b50610241610ea0565b34801561040857600080fd5b50610316610417366004614475565b611034565b34801561042857600080fd5b506102416104373660046146e2565b6110ca565b34801561044857600080fd5b506102416111d4565b34801561045d57600080fd5b5061024161046c366004614237565b61123c565b34801561047d57600080fd5b5061024161048c36600461466a565b611257565b34801561049d57600080fd5b5061028d6104ac366004614636565b61133e565b3480156104bd57600080fd5b506103166104cc36600461466a565b6113bb565b3480156104dd57600080fd5b506102416104ec36600461466a565b61144e565b3480156104fd57600080fd5b506102ba61050c36600461466a565b611482565b34801561051d57600080fd5b5061024161052c36600461469c565b6114f9565b34801561053d57600080fd5b5061031661054c3660046141e9565b6115a7565b34801561055d57600080fd5b5061024161162e565b34801561057257600080fd5b5061057b611669565b60405161026f9493929190614f27565b34801561059757600080fd5b5061031660165481565b3480156105ad57600080fd5b506102416105bc36600461469c565b6118a5565b3480156105cd57600080fd5b506102416105dc36600461466a565b611953565b3480156105ed57600080fd5b506102416105fc36600461466a565b6119df565b34801561060d57600080fd5b506102ba611a32565b34801561062257600080fd5b5061063661063136600461466a565b611a41565b604080516001600160a01b0390931683526001600160601b0390911660208301520161026f565b34801561066957600080fd5b5061028d611ac8565b610316610680366004614325565b611ad7565b34801561069157600080fd5b50610241611c84565b3480156106a657600080fd5b506102416106b53660046142ee565b611cb7565b3480156106c657600080fd5b506102416106d5366004614475565b611d78565b6102416106e8366004614475565b612142565b3480156106f957600080fd5b50610241610708366004614596565b612317565b34801561071957600080fd5b50610241610728366004614273565b612630565b34801561073957600080fd5b506102416107483660046141e9565b612668565b34801561075957600080fd5b5061024161076836600461449f565b6126b9565b34801561077957600080fd5b5061028d61078836600461466a565b61274a565b34801561079957600080fd5b5061031660105481565b3480156107af57600080fd5b506102416107be36600461469c565b61285c565b3480156107cf57600080fd5b5061028d612904565b3480156107e457600080fd5b506102636107f3366004614204565b61296d565b34801561080457600080fd5b506102416108133660046141e9565b61299b565b34801561082457600080fd5b5061024161083336600461466a565b612a38565b34801561084457600080fd5b5061024161085336600461469c565b612a72565b600061086382612b20565b92915050565b6060600080546108789061517e565b80601f01602080910402602001604051908101604052809291908181526020018280546108a49061517e565b80156108f15780601f106108c6576101008083540402835291602001916108f1565b820191906000526020600020905b8154815290600101906020018083116108d457829003601f168201915b5050505050905090565b600061090682612b45565b61096c5760405162461bcd60e51b815260206004820152602c60248201527f4552433732313a20617070726f76656420717565727920666f72206e6f6e657860448201526b34b9ba32b73a103a37b5b2b760a11b60648201526084015b60405180910390fd5b506000908152600460205260409020546001600160a01b031690565b600061099382611482565b9050806001600160a01b0316836001600160a01b03161415610a015760405162461bcd60e51b815260206004820152602160248201527f4552433732313a20617070726f76616c20746f2063757272656e74206f776e656044820152603960f91b6064820152608401610963565b336001600160a01b0382161480610a1d5750610a1d813361296d565b610a8a5760405162461bcd60e51b815260206004820152603860248201527f4552433732313a20617070726f76652063616c6c6572206973206e6f74206f776044820152771b995c881b9bdc88185c1c1c9bdd995908199bdc88185b1b60421b6064820152608401610963565b610a948383612b62565b505050565b600e546040516308e9f63560e21b8152610b279184916001600160a01b03909116906323a7d8d490610ad090600390600401614f06565b602060405180830381600087803b158015610aea57600080fd5b505af1158015610afe573d6000803e3d6000fd5b505050506040513d601f19601f82011682018060405250810190610b229190614575565b612bd0565b5050610b3282612c7f565b610b3d828483612ca4565b60405133906001600160601b0383169084907fd2d934b82422fdab267998d02312dcf3c7873b381190b16d9b839440a3be69c690600090a4505050565b600e546040516308e9f63560e21b8152610bb19186916001600160a01b03909116906323a7d8d490610ad090600390600401614f06565b5050610bbc84612c7f565b60408051606081018252848152602080820185905281830184905291519091600091610bee9186918891879101614d64565b60405160208183030381529060405290506000610c09612db0565b610c3183604051602001610c1d919061488c565b604051602081830303815290604052612de7565b604051602001610c429291906148a8565b60408051601f198184030181529181526000898152601560209081529190208251929350610c7892600490910191840190613fbb565b506040513390610c8990839061488c565b6040519081900381209089907fd46984490a4483750157fda9ad55db9c811edd43baa9a92a390c6904cf1839b290600090a450505050505050565b33610ccd611a32565b6001600160a01b031614610cf35760405162461bcd60e51b815260040161096390615012565b600e80546001600160a01b0319166001600160a01b0392909216919091179055565b610d1f3382612f3a565b610d3b5760405162461bcd60e51b815260040161096390615047565b610a94838383612fbf565b600e546040516308e9f63560e21b8152610d7d9184916001600160a01b03909116906323a7d8d490610ad090600390600401614f06565b5050610d8882612c7f565b60008281526015602090815260409091208251610dad92600190920191840190613fbb565b506040513390610dbe90839061488c565b6040519081900381209084907fd771eaa1c1382b0a9867125fcd921fdeddd211538b5381353a877abfbe3b50a490600090a45050565b6000828152600b602090815260408083208151808301909252546001600160a01b038116808352600160a01b9091046001600160601b0316928201929092528291610e69575060408051808201909152600a546001600160a01b0381168252600160a01b90046001600160601b031660208201525b602081015160009061271090610e88906001600160601b031687615105565b610e9291906150f1565b915196919550909350505050565b600e546040516308e9f63560e21b8152610f2a916001600160a01b0316906323a7d8d490610ed390600390600401614f06565b602060405180830381600087803b158015610eed57600080fd5b505af1158015610f01573d6000803e3d6000fd5b505050506040513d601f19601f82011682018060405250810190610f259190614575565b613158565b50506017546040516370a0823160e01b81526001600160a01b039091169060009082906370a0823190610f61903090600401614e78565b60206040518083038186803b158015610f7957600080fd5b505afa158015610f8d573d6000803e3d6000fd5b505050506040513d601f19601f82011682018060405250810190610fb19190614683565b60405163a9059cbb60e01b81529091506001600160a01b0383169063a9059cbb90610fe29033908590600401614eed565b602060405180830381600087803b158015610ffc57600080fd5b505af1158015611010573d6000803e3d6000fd5b505050506040513d601f19601f82011682018060405250810190610a94919061451e565b600061103f836115a7565b82106110a15760405162461bcd60e51b815260206004820152602b60248201527f455243373231456e756d657261626c653a206f776e657220696e646578206f7560448201526a74206f6620626f756e647360a81b6064820152608401610963565b506001600160a01b03919091166000908152600660209081526040808320938352929052205490565b600e546040516308e9f63560e21b81526111019185916001600160a01b03909116906323a7d8d490610ad090600390600401614f06565b505061110c83612c7f565b60408051808201825283815260208082018490526000868152601590915291822060088101805492936009909201928290611146906151b9565b9182905550815260208082019290925260400160002082518051919261117192849290910190613fbb565b50602082810151805161118a9260018501920190613fbb565b505060405133915061119d90849061488c565b6040519081900381209085907f73b929bf4db6be678cdbc6d41a5fe0a2cbb84ca95572062c4a978d8bd80a41b190600090a4505050565b600e546040516308e9f63560e21b8152611207916001600160a01b0316906323a7d8d490610ed390600390600401614f06565b50506040514790339082156108fc029083906000818181858888f19350505050158015611238573d6000803e3d6000fd5b5050565b610a9483838360405180602001604052806000815250612630565b600e546040516308e9f63560e21b815261128e9183916001600160a01b03909116906323a7d8d490610ad090600390600401614f06565b505061129981613204565b600081815260156020526040902060030180546112b59061517e565b15905061133b576000818152601560205260408120906112d5828261403f565b6112e360018301600061403f565b6112f160028301600061403f565b6112ff60038301600061403f565b61130d60048301600061403f565b60058201805460ff1916905560006006830181905561133090600784019061403f565b600882016000905550505b50565b6060600082602001518360000151846040015160405160200161136393929190614d64565b6040516020818303038152906040529050600061137e612db0565b61139283604051602001610c1d919061488c565b6040516020016113a39291906148a8565b60408051601f19818403018152919052949350505050565b60006113c660085490565b82106114295760405162461bcd60e51b815260206004820152602c60248201527f455243373231456e756d657261626c653a20676c6f62616c20696e646578206f60448201526b7574206f6620626f756e647360a01b6064820152608401610963565b6008828154811061143c5761143c61522a565b90600052602060002001549050919050565b33611457611a32565b6001600160a01b03161461147d5760405162461bcd60e51b815260040161096390615012565b601055565b6000818152600260205260408120546001600160a01b0316806108635760405162461bcd60e51b815260206004820152602960248201527f4552433732313a206f776e657220717565727920666f72206e6f6e657869737460448201526832b73a103a37b5b2b760b91b6064820152608401610963565b600e546040516308e9f63560e21b81526115309184916001600160a01b03909116906323a7d8d490610ad090600390600401614f06565b505061153b82612c7f565b6000828152601560209081526040909120825161156092600290920191840190613fbb565b50604051339061157190839061488c565b6040519081900381209084907f80f081796a13b5a4269815447e37462c5739a69ea7f1460301b595e0c4003d8390600090a45050565b60006001600160a01b0382166116125760405162461bcd60e51b815260206004820152602a60248201527f4552433732313a2062616c616e636520717565727920666f7220746865207a65604482015269726f206164647265737360b01b6064820152608401610963565b506001600160a01b031660009081526003602052604090205490565b33611637611a32565b6001600160a01b03161461165d5760405162461bcd60e51b815260040161096390615012565b6116676000613299565b565b6011805481906116789061517e565b80601f01602080910402602001604051908101604052809291908181526020018280546116a49061517e565b80156116f15780601f106116c6576101008083540402835291602001916116f1565b820191906000526020600020905b8154815290600101906020018083116116d457829003601f168201915b5050505050908060010180546117069061517e565b80601f01602080910402602001604051908101604052809291908181526020018280546117329061517e565b801561177f5780601f106117545761010080835404028352916020019161177f565b820191906000526020600020905b81548152906001019060200180831161176257829003601f168201915b5050505050908060020180546117949061517e565b80601f01602080910402602001604051908101604052809291908181526020018280546117c09061517e565b801561180d5780601f106117e25761010080835404028352916020019161180d565b820191906000526020600020905b8154815290600101906020018083116117f057829003601f168201915b5050505050908060030180546118229061517e565b80601f016020809104026020016040519081016040528092919081815260200182805461184e9061517e565b801561189b5780601f106118705761010080835404028352916020019161189b565b820191906000526020600020905b81548152906001019060200180831161187e57829003601f168201915b5050505050905084565b600e546040516308e9f63560e21b81526118dc9184916001600160a01b03909116906323a7d8d490610ad090600390600401614f06565b50506118e782612c7f565b6000828152601560209081526040909120825161190c92600790920191840190613fbb565b50604051339061191d90839061488c565b6040519081900381209084907f91ce7fcd4462481791c3fe849f7049373c5b43ef44aed48e7f1ecce781586e1590600090a45050565b600e546040516308e9f63560e21b815261198a9183916001600160a01b03909116906323a7d8d490610ad090600390600401614f06565b505061199581612c7f565b600081815260156020526040812060068101829055600501805460ff191690556119bf9082610988565b6040513390600090839060008051602061527b833981519152908390a450565b600e546040516308e9f63560e21b8152611a169183916001600160a01b03909116906323a7d8d490610ad090600390600401614f06565b5050611a2181612c7f565b6000908152600b6020526040812055565b600c546001600160a01b031690565b6000818152600b602090815260408083208151808301909252546001600160a01b038116808352600160a01b9091046001600160601b0316928201929092528291611ab6575060408051808201909152600a546001600160a01b0381168252600160a01b90046001600160601b031660208201525b80516020909101519094909350915050565b6060600180546108789061517e565b600e546040516308e9f63560e21b8152600091611b0f916001600160a01b03909116906323a7d8d490610ed390600390600401614f06565b50506000611b1c600d5490565b9050611b288b826132eb565b611b36600d80546001019055565b60408051606081018252845181526020808601519082015284820151918101919091526000611b648261133e565b905060006015600085815260200190815260200160002090508c816000019080519060200190611b95929190613fbb565b508b51611bab90600183019060208f0190613fbb565b508a51611bc190600283019060208e0190613fbb565b508951611bd790600383019060208d0190613fbb565b508151611bed9060048301906020850190613fbb565b508851611c0390600783019060208c0190613fbb565b5060058101805460ff19169055600060068201819055600882018190556040805180820182528a815260208082018b905283805260098501815291909220825180519192611c5692849290910190613fbb565b506020828101518051611c6f9260018501920190613fbb565b50949f9e505050505050505050505050505050565b33611c8d611a32565b6001600160a01b031614611cb35760405162461bcd60e51b815260040161096390615012565b3380ff5b6001600160a01b038216331415611d0c5760405162461bcd60e51b815260206004820152601960248201527822a9219b99189d1030b8383937bb32903a379031b0b63632b960391b6044820152606401610963565b3360008181526005602090815260408083206001600160a01b03871680855290835292819020805460ff191686151590811790915590519081529192917f17307eab39ab6107e8899845ad3d59bd9653f200f220920489ca2b5937696c31910160405180910390a35050565b6000611d8382611482565b90506001600160a01b038116331415611d9b57600080fd5b6001600160a01b038116611dae57600080fd5b611db782612c7f565b601754600083815260156020526040812060068101546010546001600160a01b039094169391929091611dea9083615105565b604051636eb1769f60e11b81523360048201523060248201529091506000906001600160a01b0386169063dd62ed3e9060440160206040518083038186803b158015611e3557600080fd5b505afa158015611e49573d6000803e3d6000fd5b505050506040513d601f19601f82011682018060405250810190611e6d9190614683565b905081811015611ebe5760405162461bcd60e51b815260206004820152601c60248201527b496e73756666696369656e7420746f6b656e20616c6c6f77616e636560201b6044820152606401610963565b600584015460ff161515600114611ed457600080fd5b6000606460165483611ee69190615105565b611ef091906150f1565b90506000611efe8284615124565b6040516323b872dd60e01b815290915030906001600160a01b038916906323b872dd90611f3390339085908790600401614e8c565b602060405180830381600087803b158015611f4d57600080fd5b505af1158015611f61573d6000803e3d6000fd5b505050506040513d601f19601f82011682018060405250810190611f85919061451e565b50600080611f938c86610df4565b9092509050801561203f576040516323b872dd60e01b81526001600160a01b038b16906323b872dd90611fce90339086908690600401614e8c565b602060405180830381600087803b158015611fe857600080fd5b505af1158015611ffc573d6000803e3d6000fd5b505050506040513d601f19601f82011682018060405250810190612020919061451e565b50604051339082908e9060008051602061531b83398151915290600090a45b600061204b8287615124565b90506120578e8e610988565b8a6001600160a01b03166323b872dd338e846040518463ffffffff1660e01b815260040161208793929190614e8c565b602060405180830381600087803b1580156120a157600080fd5b505af11580156120b5573d6000803e3d6000fd5b505050506040513d601f19601f820116820180604052508101906120d9919061451e565b506120e58c8f8f61123c565b60008a6006018190555060008a60050160006101000a81548160ff021916908315150217905550336001600160a01b0316888e6000805160206152fb83398151915260405160405180910390a45050505050505050505050505050565b600061214d82611482565b90506001600160a01b03811633141561216557600080fd5b6001600160a01b03811661217857600080fd5b61218182612c7f565b60008281526015602052604090206006810154348111156121a157600080fd5b600582015460ff1615156001146121b757600080fd5b60006064601654346121c99190615105565b6121d391906150f1565b905060006121e18234615124565b6040519091503090819083156108fc029084906000818181858888f19350505050158015612213573d6000803e3d6000fd5b506000806122218986610df4565b90925090508015612281576040516001600160a01b0383169082156108fc029083906000818181858888f19350505050158015612262573d6000803e3d6000fd5b50604051339082908b9060008051602061531b83398151915290600090a45b600061228d8287615124565b90506122998b8b610988565b6040516001600160a01b038a169082156108fc029083906000818181858888f193505050501580156122cf573d6000803e3d6000fd5b506122db898c8c61123c565b60006006890181905560058901805460ff19169055604051339189918d916000805160206152fb83398151915291a45050505050505050505050565b600e546040516308e9f63560e21b815261234a916001600160a01b0316906323a7d8d490610ed390600190600401614f06565b50506000601160405180608001604052908160008201805461236b9061517e565b80601f01602080910402602001604051908101604052809291908181526020018280546123979061517e565b80156123e45780601f106123b9576101008083540402835291602001916123e4565b820191906000526020600020905b8154815290600101906020018083116123c757829003601f168201915b505050505081526020016001820180546123fd9061517e565b80601f01602080910402602001604051908101604052809291908181526020018280546124299061517e565b80156124765780601f1061244b57610100808354040283529160200191612476565b820191906000526020600020905b81548152906001019060200180831161245957829003601f168201915b5050505050815260200160028201805461248f9061517e565b80601f01602080910402602001604051908101604052809291908181526020018280546124bb9061517e565b80156125085780601f106124dd57610100808354040283529160200191612508565b820191906000526020600020905b8154815290600101906020018083116124eb57829003601f168201915b505050505081526020016003820180546125219061517e565b80601f016020809104026020016040519081016040528092919081815260200182805461254d9061517e565b801561259a5780601f1061256f5761010080835404028352916020019161259a565b820191906000526020600020905b81548152906001019060200180831161257d57829003601f168201915b5050509190925250505085815260208082018690526040820185905260608201849052865191925082916011916125d59183918a0190613fbb565b5060208281015180516125ee9260018501920190613fbb565b506040820151805161260a916002840191602090910190613fbb565b5060608201518051612626916003840191602090910190613fbb565b5050505050505050565b61263a3383612f3a565b6126565760405162461bcd60e51b815260040161096390615047565b61266284848484613417565b50505050565b33612671611a32565b6001600160a01b0316146126975760405162461bcd60e51b815260040161096390615012565b601780546001600160a01b0319166001600160a01b0392909216919091179055565b600e546040516308e9f63560e21b81526126f09184916001600160a01b03909116906323a7d8d490610ad090600390600401614f06565b50506126fb82612c7f565b600082815260156020526040902060068101829055600501805460ff191660011790556127288383610988565b60405133908290849060008051602061527b83398151915290600090a4505050565b606061275582612c7f565b600061276083611482565b600084815260156020526040812091925061277a8261344a565b9050600061278783613474565b905060006127948561348a565b905060006127a1856134b0565b905060006127ae866134c6565b905060006127bb876134dc565b905060006127c8886134f2565b905060006127d589613552565b905060006127e28a613571565b9050600089898989898989898960405160200161280799989796959493929190614ac2565b6040516020818303038152906040529050612820612db0565b61282982612de7565b60405160200161283a9291906148a8565b6040516020818303038152906040529c50505050505050505050505050919050565b600e546040516308e9f63560e21b81526128939184916001600160a01b03909116906323a7d8d490610ad090600390600401614f06565b505061289e82612c7f565b600082815260156020908152604090912082516128bd92840190613fbb565b5060405133906128ce90839061488c565b6040519081900381209084907ffbbfca16a2770c7ca6e7063ab1a7eea5fe441ffef818325db51752066a6b128a90600090a45050565b60405160609060009061292590601190601290601490601390602001614bc4565b604051602081830303815290604052905061293e612db0565b61294782612de7565b6040516020016129589291906148a8565b60405160208183030381529060405291505090565b6001600160a01b03918216600090815260056020908152604080832093909416825291909152205460ff1690565b336129a4611a32565b6001600160a01b0316146129ca5760405162461bcd60e51b815260040161096390615012565b6001600160a01b038116612a2f5760405162461bcd60e51b815260206004820152602660248201527f4f776e61626c653a206e6577206f776e657220697320746865207a65726f206160448201526564647265737360d01b6064820152608401610963565b61133b81613299565b600e546040516308e9f63560e21b8152612a6b916001600160a01b0316906323a7d8d490610ed390600390600401614f06565b5050601655565b600e546040516308e9f63560e21b8152612aa99184916001600160a01b03909116906323a7d8d490610ad090600390600401614f06565b5050612ab482612c7f565b60008281526015602090815260409091208251612ad992600390920191840190613fbb565b506040513390612aea90839061488c565b6040519081900381209084907fedbf1209b3baa7c1b5c43052ce5c511e243b3241d9f67733141d14f1da88cba190600090a45050565b60006001600160e01b0319821663152a902d60e11b148061086357506108638261365b565b6000908152600260205260409020546001600160a01b0316151590565b600081815260046020526040902080546001600160a01b0319166001600160a01b0384169081179091558190612b9782611482565b6001600160a01b03167f8c5be1e5ebec7d5bd14f71427d1e84f3dd0314c0f7b2291e5b200ac8c7c3b92560405160405180910390a45050565b600e54604051600091606091839182916001600160a01b0390911690612bfc9088908890602401615098565b60408051601f198184030181529181526020820180516001600160e01b0316635173e4b760e01b17905251612c31919061488c565b600060405180830381855af49150503d8060008114612c6c576040519150601f19603f3d011682016040523d82523d6000602084013e612c71565b606091505b509097909650945050505050565b612c8881612b45565b61133b5760405162461bcd60e51b815260040161096390614fc6565b6127106001600160601b0382161115612d125760405162461bcd60e51b815260206004820152602a60248201527f455243323938313a20726f79616c7479206665652077696c6c206578636565646044820152692073616c65507269636560b01b6064820152608401610963565b6001600160a01b038216612d665760405162461bcd60e51b815260206004820152601b60248201527a455243323938313a20496e76616c696420706172616d657465727360281b6044820152606401610963565b6040805180820182526001600160a01b0393841681526001600160601b0392831660208083019182526000968752600b90529190942093519051909116600160a01b029116179055565b60408051808201909152601d81527f646174613a6170706c69636174696f6e2f6a736f6e3b6261736536342c000000602082015290565b6060815160001415612e0757505060408051602081019091526000815290565b600060405180606001604052806040815260200161529b6040913990506000600384516002612e3691906150d9565b612e4091906150f1565b612e4b906004615105565b6001600160401b03811115612e6257612e62615240565b6040519080825280601f01601f191660200182016040528015612e8c576020820181803683370190505b509050600182016020820185865187015b80821015612ef8576003820191508151603f8160121c168501518453600184019350603f81600c1c168501518453600184019350603f8160061c168501518453600184019350603f8116850151845350600183019250612e9d565b5050600386510660018114612f145760028114612f2757612f2f565b603d6001830353603d6002830353612f2f565b603d60018303535b509195945050505050565b6000612f4582612b45565b612f615760405162461bcd60e51b815260040161096390614fc6565b6000612f6c83611482565b9050806001600160a01b0316846001600160a01b03161480612fa75750836001600160a01b0316612f9c846108fb565b6001600160a01b0316145b80612fb75750612fb7818561296d565b949350505050565b826001600160a01b0316612fd282611482565b6001600160a01b03161461303a5760405162461bcd60e51b815260206004820152602960248201527f4552433732313a207472616e73666572206f6620746f6b656e2074686174206960448201526839903737ba1037bbb760b91b6064820152608401610963565b6001600160a01b03821661309c5760405162461bcd60e51b8152602060048201526024808201527f4552433732313a207472616e7366657220746f20746865207a65726f206164646044820152637265737360e01b6064820152608401610963565b6130a7838383613680565b6130b2600082612b62565b6001600160a01b03831660009081526003602052604081208054600192906130db908490615124565b90915550506001600160a01b03821660009081526003602052604081208054600192906131099084906150d9565b909155505060008181526002602052604080822080546001600160a01b0319166001600160a01b0386811691821790925591518493918716916000805160206152db83398151915291a4505050565b600e54604051600091606091839182916001600160a01b0390911690613182908790602401614f06565b60408051601f198184030181529181526020820180516001600160e01b031663f83baac760e01b179052516131b7919061488c565b600060405180830381855af49150503d80600081146131f2576040519150601f19603f3d011682016040523d82523d6000602084013e6131f7565b606091505b5090969095509350505050565b600061320f82611482565b905061321d81600084613680565b613228600083612b62565b6001600160a01b0381166000908152600360205260408120805460019290613251908490615124565b909155505060008281526002602052604080822080546001600160a01b0319169055518391906001600160a01b038416906000805160206152db833981519152908390a45050565b600c80546001600160a01b038381166001600160a01b0319831681179093556040519116919082907f8be0079c531659141344cd1fd0a4f28419497f9722a3daafe3b4186f6b6457e090600090a35050565b6001600160a01b0382166133415760405162461bcd60e51b815260206004820181905260248201527f4552433732313a206d696e7420746f20746865207a65726f20616464726573736044820152606401610963565b61334a81612b45565b156133965760405162461bcd60e51b815260206004820152601c60248201527b115490cdcc8c4e881d1bdad95b88185b1c9958591e481b5a5b9d195960221b6044820152606401610963565b6133a260008383613680565b6001600160a01b03821660009081526003602052604081208054600192906133cb9084906150d9565b909155505060008181526002602052604080822080546001600160a01b0319166001600160a01b03861690811790915590518392906000805160206152db833981519152908290a45050565b613422848484612fbf565b61342e84848484613778565b6126625760405162461bcd60e51b815260040161096390614f74565b60405160609061345e908390602001614a49565b6040516020818303038152906040529050919050565b60608160010160405160200161345e919061490e565b60606134a0826001600160a01b03166014613885565b60405160200161345e9190614ccb565b60608160030160405160200161345e91906148d7565b60608160020160405160200161345e9190614a66565b60608160040160405160200161345e91906149cf565b600581015460609060ff16613524576040518060400160405280600581526020016466616c736560d81b815250613542565b604051806040016040528060048152602001637472756560e01b8152505b60405160200161345e919061498f565b60606135618260060154613a27565b60405160200161345e9190614a84565b6040805160008152602081019091526060908061358d84613b24565b60405160200161359e9291906148a8565b6040516020818303038152906040529050806135b984613b3a565b6040516020016135ca9291906148a8565b6040516020818303038152906040529050806135e584613b68565b6040516020016135f69291906148a8565b60405160208183030381529060405290508061361184613b96565b6040516020016136229291906148a8565b6040516020818303038152906040529050806040516020016136449190614c88565b604051602081830303815290604052915050919050565b60006001600160e01b0319821663780e9d6360e01b1480610863575061086382613bb5565b6001600160a01b038316158015906136a057506001600160a01b03821615155b156136b6576136af8183613c05565b505061376d565b6001600160a01b03831661375357600e546040516308e9f63560e21b81526136af9183916001600160a01b03909116906323a7d8d4906136fb90600390600401614f06565b602060405180830381600087803b15801561371557600080fd5b505af1158015613729573d6000803e3d6000fd5b505050506040513d601f19601f8201168201806040525081019061374d9190614575565b84613c66565b6001600160a01b03821661376d5761376a81613d18565b50505b610a94838383613d73565b60006001600160a01b0384163b1561387a57604051630a85bd0160e11b81526001600160a01b0385169063150b7a02906137bc903390899088908890600401614eb0565b602060405180830381600087803b1580156137d657600080fd5b505af1925050508015613806575060408051601f3d908101601f1916820190925261380391810190614558565b60015b613860573d808015613834576040519150601f19603f3d011682016040523d82523d6000602084013e613839565b606091505b5080516138585760405162461bcd60e51b815260040161096390614f74565b805181602001fd5b6001600160e01b031916630a85bd0160e11b149050612fb7565b506001949350505050565b60606000613894836002615105565b61389f9060026150d9565b6001600160401b038111156138b6576138b6615240565b6040519080825280601f01601f1916602001820160405280156138e0576020820181803683370190505b509050600360fc1b816000815181106138fb576138fb61522a565b60200101906001600160f81b031916908160001a905350600f60fb1b8160018151811061392a5761392a61522a565b60200101906001600160f81b031916908160001a905350600061394e846002615105565b6139599060016150d9565b90505b60018111156139d1576f181899199a1a9b1b9c1cb0b131b232b360811b85600f166010811061398d5761398d61522a565b1a60f81b8282815181106139a3576139a361522a565b60200101906001600160f81b031916908160001a90535060049490941c936139ca81615167565b905061395c565b508315613a205760405162461bcd60e51b815260206004820181905260248201527f537472696e67733a20686578206c656e67746820696e73756666696369656e746044820152606401610963565b9392505050565b606081613a4b5750506040805180820190915260018152600360fc1b602082015290565b8160005b8115613a755780613a5f816151b9565b9150613a6e9050600a836150f1565b9150613a4f565b6000816001600160401b03811115613a8f57613a8f615240565b6040519080825280601f01601f191660200182016040528015613ab9576020820181803683370190505b5090505b8415612fb757613ace600183615124565b9150613adb600a866151d4565b613ae69060306150d9565b60f81b818381518110613afb57613afb61522a565b60200101906001600160f81b031916908160001a905350613b1d600a866150f1565b9450613abd565b60608160070160405160200161345e9190614cf0565b60608160090160008360080154815260200190815260200160002060000160405160200161345e9190614d22565b60608160090160008360080154815260200190815260200160002060010160405160200161345e91906149f5565b6060613ba58260080154613a27565b60405160200161345e9190614932565b60006001600160e01b031982166380ac58cd60e01b1480613be657506001600160e01b03198216635b5e139f60e01b145b8061086357506301ffc9a760e01b6001600160e01b0319831614610863565b600e54604051602481018490526001600160a01b03838116604483015260009260609284928392169060640160408051601f198184030181529181526020820180516001600160e01b0316635947410360e01b17905251612c31919061488c565b600e54604051600091606091839182916001600160a01b0390911690613c94908990899089906024016150ac565b60408051601f198184030181529181526020820180516001600160e01b031663a82535ed60e01b17905251613cc9919061488c565b600060405180830381855af49150503d8060008114613d04576040519150601f19603f3d011682016040523d82523d6000602084013e613d09565b606091505b50909890975095505050505050565b600e5460405160248101839052600091606091839182916001600160a01b039091169060440160408051601f198184030181529181526020820180516001600160e01b031663218b781b60e01b179052516131b7919061488c565b6001600160a01b038316613dce57613dc981600880546000838152600960205260408120829055600182018355919091527ff3f7a9fe364faab93b216da50a3214154f22a0a2b415b23a84c8169e8b636ee30155565b613df1565b816001600160a01b0316836001600160a01b031614613df157613df18382613e2b565b6001600160a01b038216613e0857610a9481613ec8565b826001600160a01b0316826001600160a01b031614610a9457610a948282613f77565b60006001613e38846115a7565b613e429190615124565b600083815260076020526040902054909150808214613e95576001600160a01b03841660009081526006602090815260408083208584528252808320548484528184208190558352600790915290208190555b5060009182526007602090815260408084208490556001600160a01b039094168352600681528383209183525290812055565b600854600090613eda90600190615124565b60008381526009602052604081205460088054939450909284908110613f0257613f0261522a565b906000526020600020015490508060088381548110613f2357613f2361522a565b6000918252602080832090910192909255828152600990915260408082208490558582528120556008805480613f5b57613f5b615214565b6001900381819060005260206000200160009055905550505050565b6000613f82836115a7565b6001600160a01b039093166000908152600660209081526040808320868452825280832085905593825260079052919091209190915550565b828054613fc79061517e565b90600052602060002090601f016020900481019282613fe9576000855561402f565b82601f1061400257805160ff191683800117855561402f565b8280016001018555821561402f579182015b8281111561402f578251825591602001919060010190614014565b5061403b929150614075565b5090565b50805461404b9061517e565b6000825580601f1061405b575050565b601f01602090049060005260206000209081019061133b91905b5b8082111561403b5760008155600101614076565b60006001600160401b03808411156140a4576140a4615240565b604051601f8501601f19908116603f011681019082821181831017156140cc576140cc615240565b816040528093508581528686860111156140e557600080fd5b858560208301376000602087830101525050509392505050565b80356001600160a01b038116811461411657600080fd5b919050565b600082601f83011261412c57600080fd5b613a208383356020850161408a565b60006060828403121561414d57600080fd5b604051606081016001600160401b03808211838310171561417057614170615240565b81604052829350843591508082111561418857600080fd5b6141948683870161411b565b835260208501359150808211156141aa57600080fd5b6141b68683870161411b565b602084015260408501359150808211156141cf57600080fd5b506141dc8582860161411b565b6040830152505092915050565b6000602082840312156141fb57600080fd5b613a20826140ff565b6000806040838503121561421757600080fd5b614220836140ff565b915061422e602084016140ff565b90509250929050565b60008060006060848603121561424c57600080fd5b614255846140ff565b9250614263602085016140ff565b9150604084013590509250925092565b6000806000806080858703121561428957600080fd5b614292856140ff565b93506142a0602086016140ff565b92506040850135915060608501356001600160401b038111156142c257600080fd5b8501601f810187136142d357600080fd5b6142e28782356020840161408a565b91505092959194509250565b6000806040838503121561430157600080fd5b61430a836140ff565b9150602083013561431a81615256565b809150509250929050565b60008060008060008060008060006101208a8c03121561434457600080fd5b61434d8a6140ff565b985060208a01356001600160401b038082111561436957600080fd5b6143758d838e0161411b565b995060408c013591508082111561438b57600080fd5b6143978d838e0161411b565b985060608c01359150808211156143ad57600080fd5b6143b98d838e0161411b565b975060808c01359150808211156143cf57600080fd5b6143db8d838e0161411b565b965060a08c01359150808211156143f157600080fd5b6143fd8d838e0161411b565b955060c08c013591508082111561441357600080fd5b61441f8d838e0161411b565b945060e08c013591508082111561443557600080fd5b6144418d838e0161411b565b93506101008c013591508082111561445857600080fd5b506144658c828d0161413b565b9150509295985092959850929598565b6000806040838503121561448857600080fd5b614491836140ff565b946020939093013593505050565b6000806000606084860312156144b457600080fd5b6144bd846140ff565b95602085013595506040909401359392505050565b6000806000606084860312156144e757600080fd5b6144f0846140ff565b92506020840135915060408401356001600160601b038116811461451357600080fd5b809150509250925092565b60006020828403121561453057600080fd5b8151613a2081615256565b60006020828403121561454d57600080fd5b8135613a2081615264565b60006020828403121561456a57600080fd5b8151613a2081615264565b60006020828403121561458757600080fd5b815160048110613a2057600080fd5b600080600080608085870312156145ac57600080fd5b84356001600160401b03808211156145c357600080fd5b6145cf8883890161411b565b955060208701359150808211156145e557600080fd5b6145f18883890161411b565b9450604087013591508082111561460757600080fd5b6146138883890161411b565b9350606087013591508082111561462957600080fd5b506142e28782880161411b565b60006020828403121561464857600080fd5b81356001600160401b0381111561465e57600080fd5b612fb78482850161413b565b60006020828403121561467c57600080fd5b5035919050565b60006020828403121561469557600080fd5b5051919050565b600080604083850312156146af57600080fd5b8235915060208301356001600160401b038111156146cc57600080fd5b6146d88582860161411b565b9150509250929050565b6000806000606084860312156146f757600080fd5b8335925060208401356001600160401b038082111561471557600080fd5b6147218783880161411b565b9350604086013591508082111561473757600080fd5b506147448682870161411b565b9150509250925092565b6000806000806080858703121561476457600080fd5b8435935060208501356001600160401b03808211156145e557600080fd5b6000806040838503121561479557600080fd5b50508035926020909101359150565b600081518084526147bc81602086016020860161513b565b601f01601f19169290920160200192915050565b600481106147ee57634e487b7160e01b600052602160045260246000fd5b9052565b8054600090600181811c908083168061480c57607f831692505b602080841082141561482e57634e487b7160e01b600052602260045260246000fd5b818015614842576001811461485357614880565b60ff19861689528489019650614880565b60008881526020902060005b868110156148785781548b82015290850190830161485f565b505084890196505b50505050505092915050565b6000825161489e81846020870161513b565b9190910192915050565b600083516148ba81846020880161513b565b8351908301906148ce81836020880161513b565b01949350505050565b6f1132bc3a32b93730b62fbab936111d1160811b815260006148fc60108301846147f2565b61088b60f21b81526002019392505050565b6e113232b9b1b934b83a34b7b7111d1160891b815260006148fc600f8301846147f2565b7f7b2274726169745f74797065223a202256657273696f6e222c202276616c7565815262111d1160e91b60208201526000825161497681602385016020870161513b565b61227d60f01b6023939091019283015250602501919050565b6a1137b72fb9b0b632911d1160a91b815281516000906149b681600b85016020870161513b565b61088b60f21b600b939091019283015250600d01919050565b701130b734b6b0ba34b7b72fbab936111d1160791b815260006148fc60118301846147f2565b7f7b2274726169745f74797065223a20225265706f7369746f7279222c20227661815265363ab2911d1160d11b60208201526000614a3660268301846147f2565b62089f4b60ea1b81526003019392505050565b67113730b6b2911d1160c11b815260006148fc60088301846147f2565b681134b6b0b3b2911d1160b91b815260006148fc60098301846147f2565b68113b30b63ab2911d1160b91b81528151600090614aa981600985016020870161513b565b61088b60f21b6009939091019283015250600b01919050565b607b60f81b815260008a51614ade816001850160208f0161513b565b8a51614af38160018487010160208f0161513b565b8a51614b0a81600184868901010160208f0161513b565b8a519285019091010190614b25816001840160208d0161513b565b8851614b3a8160018486010160208d0161513b565b8851614b5181600184868801010160208d0161513b565b885193909201010190614b6b816001840160208a0161513b565b8551614b808160018486010160208a0161513b565b8551614b9781600184868801010160208a0161513b565b614bb160018284868801010101607d60f81b815260010190565b9f9e505050505050505050505050505050565b607b60f81b815267113730b6b2911d1160c11b60018201526000614beb60098301876147f2565b61088b60f21b8082526e113232b9b1b934b83a34b7b7111d1160891b6002830152614c1960118301886147f2565b818152701132bc3a32b93730b62fb634b735911d1160791b60028201529150614c4560138301876147f2565b908152681134b6b0b3b2911d1160b91b60028201529050614c69600b8201856147f2565b601160f91b8152607d60f81b6001820152600201979650505050505050565b6e2261747472696275746573223a205b60881b81528151600090614cb381600f85016020870161513b565b605d60f81b600f939091019283015250601001919050565b681137bbb732b9111d1160b91b81528151600090614aa981600985016020870161513b565b7f7b2274726169745f74797065223a2022454e53222c202276616c7565223a220081526000614a36601f8301846147f2565b7f7b2274726169745f74797065223a2022436f6d6d69742048617368222c20227681526630b63ab2911d1160c91b60208201526000614a3660278301846147f2565b741e10a227a1aa2ca82290343a36b61f1e343a36b61f60591b8152651e3432b0b21f60d11b6015820152661e39ba3cb6329f60c91b601b82015260008451614db381602285016020890161513b565b671e17b9ba3cb6329f60c11b602291840191820152661e17b432b0b21f60c91b602a820152651e3137b23c9f60d11b60318201528451614dfa81603784016020890161513b565b671e39b1b934b83a1f60c11b603792909101918201528351614e2381603f84016020880161513b565b614e6d614e5a614e47603f84860101681e17b9b1b934b83a1f60b91b815260090190565b661e17b137b23c9f60c91b815260070190565b661e17b43a36b61f60c91b815260070190565b979650505050505050565b6001600160a01b0391909116815260200190565b6001600160a01b039384168152919092166020820152604081019190915260600190565b6001600160a01b0385811682528416602082015260408101839052608060608201819052600090614ee3908301846147a4565b9695505050505050565b6001600160a01b03929092168252602082015260400190565b6020810161086382846147d0565b602081526000613a2060208301846147a4565b608081526000614f3a60808301876147a4565b8281036020840152614f4c81876147a4565b90508281036040840152614f6081866147a4565b90508281036060840152614e6d81856147a4565b60208082526032908201527f4552433732313a207472616e7366657220746f206e6f6e20455243373231526560408201527131b2b4bb32b91034b6b83632b6b2b73a32b960711b606082015260800190565b6020808252602c908201527f4552433732313a206f70657261746f7220717565727920666f72206e6f6e657860408201526b34b9ba32b73a103a37b5b2b760a11b606082015260800190565b6020808252818101527f4f776e61626c653a2063616c6c6572206973206e6f7420746865206f776e6572604082015260600190565b60208082526031908201527f4552433732313a207472616e736665722063616c6c6572206973206e6f74206f6040820152701ddb995c881b9bdc88185c1c1c9bdd9959607a1b606082015260800190565b82815260408101613a2060208301846147d0565b838152606081016150c060208301856147d0565b6001600160a01b03929092166040919091015292915050565b600082198211156150ec576150ec6151e8565b500190565b600082615100576151006151fe565b500490565b600081600019048311821515161561511f5761511f6151e8565b500290565b600082821015615136576151366151e8565b500390565b60005b8381101561515657818101518382015260200161513e565b838111156126625750506000910152565b600081615176576151766151e8565b506000190190565b600181811c9082168061519257607f821691505b602082108114156151b357634e487b7160e01b600052602260045260246000fd5b50919050565b60006000198214156151cd576151cd6151e8565b5060010190565b6000826151e3576151e36151fe565b500690565b634e487b7160e01b600052601160045260246000fd5b634e487b7160e01b600052601260045260246000fd5b634e487b7160e01b600052603160045260246000fd5b634e487b7160e01b600052603260045260246000fd5b634e487b7160e01b600052604160045260246000fd5b801515811461133b57600080fd5b6001600160e01b03198116811461133b57600080fdfe937ae5ba1a94a43da1581f1203e85b4fa088d704cfe6d5ab2940b775d5a63dd54142434445464748494a4b4c4d4e4f505152535455565758595a6162636465666768696a6b6c6d6e6f707172737475767778797a303132333435363738392b2fddf252ad1be2c89b69c2b068fc378daa952ba7f163c4a11628f55a4df523b3ef3f9b9a84d6cbcffa546a93b9831489d1db2f59675aabc4541bb5eb820e6fd34b40ddb618d352ad261434216e52c90ac449fcfb2c8a783a79bf2a19fe98f6377ea264697066735822122077124139261f4bf3059d8219f875ecfaf157818be5299a34c037bdac9c28c73564736f6c63430008070033",
  "linkReferences": {},
  "deployedLinkReferences": {}
}