{
  "_format": "hh-sol-artifact-1",
  "contractName": "DAO",
  "sourceName": "contracts/DAO.sol",
  "abi": [
    {
      "inputs": [
        {
          "internalType": "address",
          "name": "_accessControl",
          "type": "address"
        }
      ],
      "stateMutability": "nonpayable",
      "type": "constructor"
    },
    {
      "anonymous": false,
      "inputs": [
        {
          "indexed": true,
          "internalType": "address",
          "name": "voter",
          "type": "address"
        },
        {
          "indexed": false,
          "internalType": "enum AccessControl.Roles",
          "name": "role",
          "type": "uint8"
        }
      ],
      "name": "AccessLevelGranted",
      "type": "event"
    },
    {
      "anonymous": false,
      "inputs": [
        {
          "indexed": true,
          "internalType": "uint256",
          "name": "proposalId",
          "type": "uint256"
        },
        {
          "indexed": false,
          "internalType": "string",
          "name": "description",
          "type": "string"
        },
        {
          "indexed": false,
          "internalType": "enum AccessControl.Roles",
          "name": "role",
          "type": "uint8"
        }
      ],
      "name": "ProposalCreated",
      "type": "event"
    },
    {
      "anonymous": false,
      "inputs": [
        {
          "indexed": true,
          "internalType": "uint256",
          "name": "proposalId",
          "type": "uint256"
        },
        {
          "indexed": true,
          "internalType": "address",
          "name": "voter",
          "type": "address"
        }
      ],
      "name": "VoteCasted",
      "type": "event"
    },
    {
      "anonymous": false,
      "inputs": [
        {
          "indexed": true,
          "internalType": "address",
          "name": "voter",
          "type": "address"
        }
      ],
      "name": "VoterRegistered",
      "type": "event"
    },
    {
      "inputs": [
        {
          "internalType": "uint256",
          "name": "_proposalId",
          "type": "uint256"
        }
      ],
      "name": "approveProposal",
      "outputs": [],
      "stateMutability": "nonpayable",
      "type": "function"
    },
    {
      "inputs": [
        {
          "internalType": "uint256",
          "name": "_proposalId",
          "type": "uint256"
        }
      ],
      "name": "castVote",
      "outputs": [],
      "stateMutability": "nonpayable",
      "type": "function"
    },
    {
      "inputs": [
        {
          "internalType": "address",
          "name": "_requester",
          "type": "address"
        },
        {
          "internalType": "string",
          "name": "_description",
          "type": "string"
        },
        {
          "internalType": "enum AccessControl.Roles",
          "name": "role",
          "type": "uint8"
        }
      ],
      "name": "createProposal",
      "outputs": [],
      "stateMutability": "nonpayable",
      "type": "function"
    },
    {
      "inputs": [
        {
          "internalType": "uint256",
          "name": "_proposalId",
          "type": "uint256"
        }
      ],
      "name": "getProposal",
      "outputs": [
        {
          "internalType": "address",
          "name": "",
          "type": "address"
        },
        {
          "internalType": "string",
          "name": "",
          "type": "string"
        },
        {
          "internalType": "enum AccessControl.Roles",
          "name": "",
          "type": "uint8"
        },
        {
          "internalType": "uint256",
          "name": "",
          "type": "uint256"
        },
        {
          "internalType": "bool",
          "name": "",
          "type": "bool"
        }
      ],
      "stateMutability": "view",
      "type": "function"
    },
    {
      "inputs": [],
      "name": "getProposalCount",
      "outputs": [
        {
          "internalType": "uint256",
          "name": "",
          "type": "uint256"
        }
      ],
      "stateMutability": "view",
      "type": "function"
    },
    {
      "inputs": [
        {
          "internalType": "address",
          "name": "_voter",
          "type": "address"
        },
        {
          "internalType": "uint256",
          "name": "_proposalId",
          "type": "uint256"
        }
      ],
      "name": "hasVoted",
      "outputs": [
        {
          "internalType": "bool",
          "name": "",
          "type": "bool"
        }
      ],
      "stateMutability": "view",
      "type": "function"
    },
    {
      "inputs": [],
      "name": "owner",
      "outputs": [
        {
          "internalType": "address",
          "name": "",
          "type": "address"
        }
      ],
      "stateMutability": "view",
      "type": "function"
    },
    {
      "inputs": [
        {
          "internalType": "uint256",
          "name": "",
          "type": "uint256"
        }
      ],
      "name": "proposals",
      "outputs": [
        {
          "internalType": "uint256",
          "name": "proposalId",
          "type": "uint256"
        },
        {
          "internalType": "string",
          "name": "description",
          "type": "string"
        },
        {
          "internalType": "enum AccessControl.Roles",
          "name": "role",
          "type": "uint8"
        },
        {
          "internalType": "uint256",
          "name": "voteCount",
          "type": "uint256"
        },
        {
          "internalType": "address",
          "name": "requester",
          "type": "address"
        },
        {
          "internalType": "bool",
          "name": "isApproved",
          "type": "bool"
        }
      ],
      "stateMutability": "view",
      "type": "function"
    },
    {
      "inputs": [
        {
          "internalType": "address",
          "name": "_voter",
          "type": "address"
        }
      ],
      "name": "registerVoter",
      "outputs": [],
      "stateMutability": "nonpayable",
      "type": "function"
    },
    {
      "inputs": [
        {
          "internalType": "address",
          "name": "_voter",
          "type": "address"
        }
      ],
      "name": "revokeVoter",
      "outputs": [],
      "stateMutability": "nonpayable",
      "type": "function"
    },
    {
      "inputs": [
        {
          "internalType": "address",
          "name": "_accessControl",
          "type": "address"
        }
      ],
      "name": "setAccessControl",
      "outputs": [],
      "stateMutability": "nonpayable",
      "type": "function"
    },
    {
      "inputs": [
        {
          "internalType": "address",
          "name": "",
          "type": "address"
        }
      ],
      "name": "voters",
      "outputs": [
        {
          "internalType": "bool",
          "name": "isRegistered",
          "type": "bool"
        },
        {
          "internalType": "bool",
          "name": "hasVoted",
          "type": "bool"
        }
      ],
      "stateMutability": "view",
      "type": "function"
    }
  ],
  "bytecode": "0x6080604052600360065534801561001557600080fd5b506040516111e93803806111e983398101604081905261003491610071565b600280546001600160a01b03199081163317909155600180546001600160a01b0393909316928216831790556000805490911690911790556100a1565b60006020828403121561008357600080fd5b81516001600160a01b038116811461009a57600080fd5b9392505050565b611139806100b06000396000f3fe608060405234801561001057600080fd5b50600436106100a45760003560e01c8063013cf08b146100a957806319129e5a146100d75780632a1fac16146100ec57806338db6dd3146100ff5780633eb76b9c14610112578063425458251461012557806369a0296f146101485780638da5cb5b1461015b57806398951b5614610186578063a3ec138d14610199578063c08cc02d146101dc578063c7f758a8146101f2575b600080fd5b6100bc6100b7366004610da3565b610216565b6040516100ce96959493929190610f65565b60405180910390f35b6100ea6100e5366004610be4565b6102e6565b005b6100ea6100fa366004610be4565b61033b565b6100ea61010d366004610be4565b610438565b6100ea610120366004610da3565b6104b4565b610138610133366004610cbf565b6105cb565b60405190151581526020016100ce565b6100ea610156366004610c08565b6105fa565b60025461016e906001600160a01b031681565b6040516001600160a01b0390911681526020016100ce565b6100ea610194366004610da3565b6106f4565b6101c56101a7366004610be4565b60046020526000908152604090205460ff8082169161010090041682565b6040805192151583529015156020830152016100ce565b6101e4610928565b6040519081526020016100ce565b610205610200366004610da3565b610938565b6040516100ce959493929190610e26565b6005602052600090815260409020805460018201805491929161023890611033565b80601f016020809104026020016040519081016040528092919081815260200182805461026490611033565b80156102b15780601f10610286576101008083540402835291602001916102b1565b820191906000526020600020905b81548152906001019060200180831161029457829003601f168201915b50505060028401546003850154600490950154939460ff918216949093506001600160a01b0381169250600160a01b90041686565b6002546001600160a01b031633146103195760405162461bcd60e51b815260040161031090610ec7565b60405180910390fd5b600080546001600160a01b0319166001600160a01b0392909216919091179055565b6002546001600160a01b031633146103655760405162461bcd60e51b815260040161031090610ec7565b6001600160a01b03811660009081526004602052604090205460ff166103cd5760405162461bcd60e51b815260206004820152601d60248201527f44414f3a20566f746572206973206e6f7420726567697374657265642e0000006044820152606401610310565b60015b60058160ff1610156104155760008160ff1660038111156103f3576103f36110bf565b90506103ff8184610a24565b505050808061040d90611089565b9150506103d0565b506001600160a01b03166000908152600460205260409020805461ffff19169055565b6001600160a01b03811660009081526004602052604090205460ff1661047d576001600160a01b0381166000908152600460205260409020805461ffff191660011790555b6040516001600160a01b038216907fb6be2187d059cc2a55fe29e0e503b566e1e0f8c8780096e185429350acffd3dd90600090a250565b3360009081526004602052604090205460ff166104e35760405162461bcd60e51b815260040161031090610f12565b60008181526005602081815260408084203385529283019091529091205460ff16156105695760405162461bcd60e51b815260206004820152602f60248201527f44414f3a20566f7465722068617320616c726561647920766f74656420666f7260448201526e103a3434b990383937b837b9b0b61760891b6064820152608401610310565b3360009081526005820160205260408120805460ff19166001179055600382018054916105958361106e565b9091555050604051339083907fd8d46ecf72f6103ff400e47d1b5fdfe248d4ca34a4acd39f63fbe903c8f7e7bd90600090a35050565b60008181526005602081815260408084206001600160a01b0387168552909201905290205460ff165b92915050565b3360009081526004602052604090205460ff166106295760405162461bcd60e51b815260040161031090610f12565b600061063460035490565b9050610644600380546001019055565b60008181526005602090815260409091208281558451909161066d916001840191870190610b37565b5060028101805484919060ff1916600183600381111561068f5761068f6110bf565b02179055506004810180546001600160a81b0319166001600160a01b03871617905560405182907fd54d24c2f5d3c070ed74aa4a4926cc273f4bdf17b66ce3d0a6493b11da160e28906106e59087908790610ea5565b60405180910390a25050505050565b6002546001600160a01b0316331461071e5760405162461bcd60e51b815260040161031090610ec7565b60008181526005602052604090206004810154600160a01b900460ff16156107995760405162461bcd60e51b815260206004820152602860248201527f44414f3a2050726f706f73616c2068617320616c7265616479206265656e206160448201526738383937bb32b21760c11b6064820152608401610310565b600080546002830154604051630d4ec1e960e21b81526001600160a01b039092169163353b07a4916107d39160ff90911690600401610e71565b60006040518083038186803b1580156107eb57600080fd5b505afa1580156107ff573d6000803e3d6000fd5b505050506040513d6000823e601f3d908101601f191682016040526108279190810190610ceb565b51600383015490915061083b600283610fe5565b811061092257600283015460048401546000916108669160ff909116906001600160a01b0316610ad6565b509050806108c65760405162461bcd60e51b815260206004820152602760248201527f44414f3a204661696c656420746f206772616e7420726f6c6520746f207265716044820152663ab2b9ba32b91760c91b6064820152608401610310565b600484018054600160a01b60ff60a01b1982161790915560028501546040516001600160a01b03909216917fb92abe584d804fddf2e0a4a6f4334bc45cbe5da9a14cb0b865282ca39768a4f7916106e59160ff90911690610e71565b50505050565b600061093360035490565b905090565b600081815260056020526040812060048101546002820154600383015460018401805460609587958695869592946001600160a01b03831694909360ff928316939092600160a01b9091041690849061099090611033565b80601f01602080910402602001604051908101604052809291908181526020018280546109bc90611033565b8015610a095780601f106109de57610100808354040283529160200191610a09565b820191906000526020600020905b8154815290600101906020018083116109ec57829003601f168201915b50505050509350955095509550955095505091939590929450565b60008054604051606091839182916001600160a01b03169061138890610a509089908990602401610e7f565b60408051601f198184030181529181526020820180516001600160e01b031663560dde2d60e11b17905251610a859190610e0a565b60006040518083038160008787f1925050503d8060008114610ac3576040519150601f19603f3d011682016040523d82523d6000602084013e610ac8565b606091505b509097909650945050505050565b60008054604051606091839182916001600160a01b03169061138890610b029089908990602401610e7f565b60408051601f198184030181529181526020820180516001600160e01b03166332b3bf9f60e01b17905251610a859190610e0a565b828054610b4390611033565b90600052602060002090601f016020900481019282610b655760008555610bab565b82601f10610b7e57805160ff1916838001178555610bab565b82800160010185558215610bab579182015b82811115610bab578251825591602001919060010190610b90565b50610bb7929150610bbb565b5090565b5b80821115610bb75760008155600101610bbc565b803560048110610bdf57600080fd5b919050565b600060208284031215610bf657600080fd5b8135610c01816110eb565b9392505050565b600080600060608486031215610c1d57600080fd5b8335610c28816110eb565b92506020848101356001600160401b0380821115610c4557600080fd5b818701915087601f830112610c5957600080fd5b813581811115610c6b57610c6b6110d5565b610c7d601f8201601f19168501610fb5565b91508082528884828501011115610c9357600080fd5b8084840185840137600084828401015250809450505050610cb660408501610bd0565b90509250925092565b60008060408385031215610cd257600080fd5b8235610cdd816110eb565b946020939093013593505050565b60006020808385031215610cfe57600080fd5b82516001600160401b0380821115610d1557600080fd5b818501915085601f830112610d2957600080fd5b815181811115610d3b57610d3b6110d5565b8060051b9150610d4c848301610fb5565b8181528481019084860184860187018a1015610d6757600080fd5b600095505b83861015610d965780519450610d81856110eb565b84835260019590950194918601918601610d6c565b5098975050505050505050565b600060208284031215610db557600080fd5b5035919050565b60048110610dda57634e487b7160e01b600052602160045260246000fd5b9052565b60008151808452610df6816020860160208601611007565b601f01601f19169290920160200192915050565b60008251610e1c818460208701611007565b9190910192915050565b6001600160a01b038616815260a060208201819052600090610e4a90830187610dde565b9050610e596040830186610dbc565b83606083015282151560808301529695505050505050565b602081016105f48284610dbc565b60408101610e8d8285610dbc565b6001600160a01b039290921660209190910152919050565b604081526000610eb86040830185610dde565b9050610c016020830184610dbc565b6020808252602b908201527f44414f3a204f6e6c7920746865206f776e65722063616e2063616c6c2074686960408201526a3990333ab731ba34b7b71760a91b606082015260800190565b60208082526033908201527f44414f3a204f6e6c79207265676973746572656420766f746572732063616e2060408201527231b0b636103a3434b990333ab731ba34b7b71760691b606082015260800190565b86815260c060208201526000610f7e60c0830188610dde565b9050610f8d6040830187610dbc565b60608201949094526001600160a01b03929092166080830152151560a0909101529392505050565b604051601f8201601f191681016001600160401b0381118282101715610fdd57610fdd6110d5565b604052919050565b60008261100257634e487b7160e01b600052601260045260246000fd5b500490565b60005b8381101561102257818101518382015260200161100a565b838111156109225750506000910152565b600181811c9082168061104757607f821691505b6020821081141561106857634e487b7160e01b600052602260045260246000fd5b50919050565b6000600019821415611082576110826110a9565b5060010190565b600060ff821660ff8114156110a0576110a06110a9565b60010192915050565b634e487b7160e01b600052601160045260246000fd5b634e487b7160e01b600052602160045260246000fd5b634e487b7160e01b600052604160045260246000fd5b6001600160a01b038116811461110057600080fd5b5056fea2646970667358221220adfb61b13011950aea0244c1d7039cc2fb285a5679c8bfd0e31c1a9f161f9ea864736f6c63430008070033",
  "linkReferences": {},
  "deployedLinkReferences": {}
}