{
  "_format": "hh-sol-artifact-1",
  "contractName": "Vendor",
  "sourceName": "contracts/Vendor.sol",
  "abi": [
    {
      "inputs": [
        {
          "internalType": "address",
          "name": "tokenAddress",
          "type": "address"
        }
      ],
      "stateMutability": "nonpayable",
      "type": "constructor"
    },
    {
      "anonymous": false,
      "inputs": [
        {
          "indexed": false,
          "internalType": "address",
          "name": "buyer",
          "type": "address"
        },
        {
          "indexed": false,
          "internalType": "uint256",
          "name": "amountOfETH",
          "type": "uint256"
        },
        {
          "indexed": false,
          "internalType": "uint256",
          "name": "amountOfTokens",
          "type": "uint256"
        }
      ],
      "name": "BuyTokens",
      "type": "event"
    },
    {
      "anonymous": false,
      "inputs": [
        {
          "indexed": true,
          "internalType": "address",
          "name": "previousOwner",
          "type": "address"
        },
        {
          "indexed": true,
          "internalType": "address",
          "name": "newOwner",
          "type": "address"
        }
      ],
      "name": "OwnershipTransferred",
      "type": "event"
    },
    {
      "anonymous": false,
      "inputs": [
        {
          "indexed": false,
          "internalType": "address",
          "name": "seller",
          "type": "address"
        },
        {
          "indexed": false,
          "internalType": "uint256",
          "name": "amountOfTokens",
          "type": "uint256"
        },
        {
          "indexed": false,
          "internalType": "uint256",
          "name": "amountOfETH",
          "type": "uint256"
        }
      ],
      "name": "SellTokens",
      "type": "event"
    },
    {
      "inputs": [],
      "name": "buyTokens",
      "outputs": [
        {
          "internalType": "uint256",
          "name": "tokenAmount",
          "type": "uint256"
        }
      ],
      "stateMutability": "payable",
      "type": "function"
    },
    {
      "inputs": [],
      "name": "owner",
      "outputs": [
        {
          "internalType": "address",
          "name": "",
          "type": "address"
        }
      ],
      "stateMutability": "view",
      "type": "function"
    },
    {
      "inputs": [],
      "name": "renounceOwnership",
      "outputs": [],
      "stateMutability": "nonpayable",
      "type": "function"
    },
    {
      "inputs": [
        {
          "internalType": "uint256",
          "name": "tokenAmountToSell",
          "type": "uint256"
        }
      ],
      "name": "sellTokens",
      "outputs": [],
      "stateMutability": "nonpayable",
      "type": "function"
    },
    {
      "inputs": [],
      "name": "tokensPerEth",
      "outputs": [
        {
          "internalType": "uint256",
          "name": "",
          "type": "uint256"
        }
      ],
      "stateMutability": "view",
      "type": "function"
    },
    {
      "inputs": [
        {
          "internalType": "address",
          "name": "newOwner",
          "type": "address"
        }
      ],
      "name": "transferOwnership",
      "outputs": [],
      "stateMutability": "nonpayable",
      "type": "function"
    },
    {
      "inputs": [],
      "name": "withdraw",
      "outputs": [],
      "stateMutability": "nonpayable",
      "type": "function"
    }
  ],
  "bytecode": "0x608060405260646002553480156200001657600080fd5b50604051620016a9380380620016a983398181016040528101906200003c919062000187565b6200005c62000050620000a460201b60201c565b620000ac60201b60201c565b80600160006101000a81548173ffffffffffffffffffffffffffffffffffffffff021916908373ffffffffffffffffffffffffffffffffffffffff1602179055505062000201565b600033905090565b60008060009054906101000a900473ffffffffffffffffffffffffffffffffffffffff169050816000806101000a81548173ffffffffffffffffffffffffffffffffffffffff021916908373ffffffffffffffffffffffffffffffffffffffff1602179055508173ffffffffffffffffffffffffffffffffffffffff168173ffffffffffffffffffffffffffffffffffffffff167f8be0079c531659141344cd1fd0a4f28419497f9722a3daafe3b4186f6b6457e060405160405180910390a35050565b6000815190506200018181620001e7565b92915050565b6000602082840312156200019a57600080fd5b6000620001aa8482850162000170565b91505092915050565b6000620001c082620001c7565b9050919050565b600073ffffffffffffffffffffffffffffffffffffffff82169050919050565b620001f281620001b3565b8114620001fe57600080fd5b50565b61149880620002116000396000f3fe6080604052600436106100705760003560e01c80638da5cb5b1161004e5780638da5cb5b146100cc578063cbdd69b5146100f7578063d0febe4c14610122578063f2fde38b1461014057610070565b80633ccfd60b146100755780636c11bcd31461008c578063715018a6146100b5575b600080fd5b34801561008157600080fd5b5061008a610169565b005b34801561009857600080fd5b506100b360048036038101906100ae9190610bb4565b6102dd565b005b3480156100c157600080fd5b506100ca610614565b005b3480156100d857600080fd5b506100e161069c565b6040516100ee9190611083565b60405180910390f35b34801561010357600080fd5b5061010c6106c5565b60405161011991906112b5565b60405180910390f35b61012a6106cb565b60405161013791906112b5565b60405180910390f35b34801561014c57600080fd5b5061016760048036038101906101629190610b62565b61094a565b005b610171610a42565b73ffffffffffffffffffffffffffffffffffffffff1661018f61069c565b73ffffffffffffffffffffffffffffffffffffffff16146101e5576040517f08c379a00000000000000000000000000000000000000000000000000000000081526004016101dc90611215565b60405180910390fd5b60004790506000811161022d576040517f08c379a000000000000000000000000000000000000000000000000000000000815260040161022490611255565b60405180910390fd5b60003373ffffffffffffffffffffffffffffffffffffffff16476040516102539061106e565b60006040518083038185875af1925050503d8060008114610290576040519150601f19603f3d011682016040523d82523d6000602084013e610295565b606091505b50509050806102d9576040517f08c379a00000000000000000000000000000000000000000000000000000000081526004016102d090611235565b60405180910390fd5b5050565b60008111610320576040517f08c379a0000000000000000000000000000000000000000000000000000000008152600401610317906111f5565b60405180910390fd5b6000600160009054906101000a900473ffffffffffffffffffffffffffffffffffffffff1673ffffffffffffffffffffffffffffffffffffffff166370a08231336040518263ffffffff1660e01b815260040161037d9190611083565b60206040518083038186803b15801561039557600080fd5b505afa1580156103a9573d6000803e3d6000fd5b505050506040513d601f19601f820116820180604052508101906103cd9190610bdd565b905081811015610412576040517f08c379a000000000000000000000000000000000000000000000000000000000815260040161040990611195565b60405180910390fd5b60006002548361042291906112ec565b905060004790508181101561046c576040517f08c379a000000000000000000000000000000000000000000000000000000000815260040161046390611135565b60405180910390fd5b6000600160009054906101000a900473ffffffffffffffffffffffffffffffffffffffff1673ffffffffffffffffffffffffffffffffffffffff166323b872dd3330886040518463ffffffff1660e01b81526004016104cd9392919061109e565b602060405180830381600087803b1580156104e757600080fd5b505af11580156104fb573d6000803e3d6000fd5b505050506040513d601f19601f8201168201806040525081019061051f9190610b8b565b905080610561576040517f08c379a0000000000000000000000000000000000000000000000000000000008152600401610558906111b5565b60405180910390fd5b3373ffffffffffffffffffffffffffffffffffffffff16836040516105859061106e565b60006040518083038185875af1925050503d80600081146105c2576040519150601f19603f3d011682016040523d82523d6000602084013e6105c7565b606091505b5050809150508061060d576040517f08c379a000000000000000000000000000000000000000000000000000000000815260040161060490611275565b60405180910390fd5b5050505050565b61061c610a42565b73ffffffffffffffffffffffffffffffffffffffff1661063a61069c565b73ffffffffffffffffffffffffffffffffffffffff1614610690576040517f08c379a000000000000000000000000000000000000000000000000000000000815260040161068790611215565b60405180910390fd5b61069a6000610a4a565b565b60008060009054906101000a900473ffffffffffffffffffffffffffffffffffffffff16905090565b60025481565b600080341161070f576040517f08c379a000000000000000000000000000000000000000000000000000000000815260040161070690611175565b60405180910390fd5b60006002543461071f919061131d565b90506000600160009054906101000a900473ffffffffffffffffffffffffffffffffffffffff1673ffffffffffffffffffffffffffffffffffffffff166370a08231306040518263ffffffff1660e01b815260040161077e9190611083565b60206040518083038186803b15801561079657600080fd5b505afa1580156107aa573d6000803e3d6000fd5b505050506040513d601f19601f820116820180604052508101906107ce9190610bdd565b905081811015610813576040517f08c379a000000000000000000000000000000000000000000000000000000000815260040161080a906111d5565b60405180910390fd5b6000600160009054906101000a900473ffffffffffffffffffffffffffffffffffffffff1673ffffffffffffffffffffffffffffffffffffffff1663a9059cbb33856040518363ffffffff1660e01b81526004016108729291906110d5565b602060405180830381600087803b15801561088c57600080fd5b505af11580156108a0573d6000803e3d6000fd5b505050506040513d601f19601f820116820180604052508101906108c49190610b8b565b905080610906576040517f08c379a00000000000000000000000000000000000000000000000000000000081526004016108fd90611295565b60405180910390fd5b7f0a37b72bb67eee30e09084cf386f8a17817c57f620c3ab95fb25d6a20356ec77333485604051610939939291906110fe565b60405180910390a182935050505090565b610952610a42565b73ffffffffffffffffffffffffffffffffffffffff1661097061069c565b73ffffffffffffffffffffffffffffffffffffffff16146109c6576040517f08c379a00000000000000000000000000000000000000000000000000000000081526004016109bd90611215565b60405180910390fd5b600073ffffffffffffffffffffffffffffffffffffffff168173ffffffffffffffffffffffffffffffffffffffff161415610a36576040517f08c379a0000000000000000000000000000000000000000000000000000000008152600401610a2d90611155565b60405180910390fd5b610a3f81610a4a565b50565b600033905090565b60008060009054906101000a900473ffffffffffffffffffffffffffffffffffffffff169050816000806101000a81548173ffffffffffffffffffffffffffffffffffffffff021916908373ffffffffffffffffffffffffffffffffffffffff1602179055508173ffffffffffffffffffffffffffffffffffffffff168173ffffffffffffffffffffffffffffffffffffffff167f8be0079c531659141344cd1fd0a4f28419497f9722a3daafe3b4186f6b6457e060405160405180910390a35050565b600081359050610b1d8161141d565b92915050565b600081519050610b3281611434565b92915050565b600081359050610b478161144b565b92915050565b600081519050610b5c8161144b565b92915050565b600060208284031215610b7457600080fd5b6000610b8284828501610b0e565b91505092915050565b600060208284031215610b9d57600080fd5b6000610bab84828501610b23565b91505092915050565b600060208284031215610bc657600080fd5b6000610bd484828501610b38565b91505092915050565b600060208284031215610bef57600080fd5b6000610bfd84828501610b4d565b91505092915050565b610c0f81611377565b82525050565b6000610c226036836112db565b91507f56656e646f7220686173206e6f7420656e6f7567682066756e647320746f206160008301527f6363657074207468652073656c6c2072657175657374000000000000000000006020830152604082019050919050565b6000610c886026836112db565b91507f4f776e61626c653a206e6577206f776e657220697320746865207a65726f206160008301527f64647265737300000000000000000000000000000000000000000000000000006020830152604082019050919050565b6000610cee601b836112db565b91507f53656e642045544820746f2062757920736f6d6520746f6b656e7300000000006000830152602082019050919050565b6000610d2e6040836112db565b91507f596f75722062616c616e6365206973206c6f776572207468616e20746865206160008301527f6d6f756e74206f6620746f6b656e7320796f752077616e7420746f2073656c6c6020830152604082019050919050565b6000610d94602d836112db565b91507f4661696c656420746f207472616e7366657220746f6b656e732066726f6d207560008301527f73657220746f2076656e646f72000000000000000000000000000000000000006020830152604082019050919050565b6000610dfa6034836112db565b91507f56656e646f7220636f6e747261637420686173206e6f7420656e6f756768207460008301527f6f6b656e7320696e206974732062616c616e63650000000000000000000000006020830152604082019050919050565b6000610e60602c836112db565b91507f5370656369667920616e20616d6f756e74206f6620746f6b656e20677265617460008301527f6572207468616e207a65726f00000000000000000000000000000000000000006020830152604082019050919050565b6000610ec66020836112db565b91507f4f776e61626c653a2063616c6c6572206973206e6f7420746865206f776e65726000830152602082019050919050565b6000610f06602d836112db565b91507f4661696c656420746f2073656e6420757365722062616c616e6365206261636b60008301527f20746f20746865206f776e6572000000000000000000000000000000000000006020830152604082019050919050565b6000610f6c6000836112d0565b9150600082019050919050565b6000610f866021836112db565b91507f4f776e657220686173206e6f742062616c616e636520746f207769746864726160008301527f77000000000000000000000000000000000000000000000000000000000000006020830152604082019050919050565b6000610fec601e836112db565b91507f4661696c656420746f2073656e642045544820746f20746865207573657200006000830152602082019050919050565b600061102c6020836112db565b91507f4661696c656420746f207472616e7366657220746f6b656e20746f20757365726000830152602082019050919050565b611068816113b5565b82525050565b600061107982610f5f565b9150819050919050565b60006020820190506110986000830184610c06565b92915050565b60006060820190506110b36000830186610c06565b6110c06020830185610c06565b6110cd604083018461105f565b949350505050565b60006040820190506110ea6000830185610c06565b6110f7602083018461105f565b9392505050565b60006060820190506111136000830186610c06565b611120602083018561105f565b61112d604083018461105f565b949350505050565b6000602082019050818103600083015261114e81610c15565b9050919050565b6000602082019050818103600083015261116e81610c7b565b9050919050565b6000602082019050818103600083015261118e81610ce1565b9050919050565b600060208201905081810360008301526111ae81610d21565b9050919050565b600060208201905081810360008301526111ce81610d87565b9050919050565b600060208201905081810360008301526111ee81610ded565b9050919050565b6000602082019050818103600083015261120e81610e53565b9050919050565b6000602082019050818103600083015261122e81610eb9565b9050919050565b6000602082019050818103600083015261124e81610ef9565b9050919050565b6000602082019050818103600083015261126e81610f79565b9050919050565b6000602082019050818103600083015261128e81610fdf565b9050919050565b600060208201905081810360008301526112ae8161101f565b9050919050565b60006020820190506112ca600083018461105f565b92915050565b600081905092915050565b600082825260208201905092915050565b60006112f7826113b5565b9150611302836113b5565b925082611312576113116113ee565b5b828204905092915050565b6000611328826113b5565b9150611333836113b5565b9250817fffffffffffffffffffffffffffffffffffffffffffffffffffffffffffffffff048311821515161561136c5761136b6113bf565b5b828202905092915050565b600061138282611395565b9050919050565b60008115159050919050565b600073ffffffffffffffffffffffffffffffffffffffff82169050919050565b6000819050919050565b7f4e487b7100000000000000000000000000000000000000000000000000000000600052601160045260246000fd5b7f4e487b7100000000000000000000000000000000000000000000000000000000600052601260045260246000fd5b61142681611377565b811461143157600080fd5b50565b61143d81611389565b811461144857600080fd5b50565b611454816113b5565b811461145f57600080fd5b5056fea2646970667358221220db2403f941ea5b430d49e9dce8420bf0ac55008d37bf8c40f356c448cd32bb0e64736f6c63430008000033",
  "linkReferences": {},
  "deployedLinkReferences": {}
}