{
  "_format": "hh-sol-artifact-1",
  "contractName": "Vendor",
  "sourceName": "contracts/Vendor.sol",
  "abi": [
    {
      "inputs": [
        {
          "internalType": "address",
          "name": "tokenAddress",
          "type": "address"
        },
        {
          "internalType": "address payable",
          "name": "daoAddress",
          "type": "address"
        },
        {
          "internalType": "address",
          "name": "_accessControl",
          "type": "address"
        }
      ],
      "stateMutability": "nonpayable",
      "type": "constructor"
    },
    {
      "anonymous": false,
      "inputs": [
        {
          "indexed": false,
          "internalType": "address",
          "name": "buyer",
          "type": "address"
        },
        {
          "indexed": false,
          "internalType": "uint256",
          "name": "amountOfETH",
          "type": "uint256"
        },
        {
          "indexed": false,
          "internalType": "uint256",
          "name": "amountOfTokens",
          "type": "uint256"
        }
      ],
      "name": "BuyTokens",
      "type": "event"
    },
    {
      "anonymous": false,
      "inputs": [
        {
          "indexed": true,
          "internalType": "address",
          "name": "previousOwner",
          "type": "address"
        },
        {
          "indexed": true,
          "internalType": "address",
          "name": "newOwner",
          "type": "address"
        }
      ],
      "name": "OwnershipTransferred",
      "type": "event"
    },
    {
      "anonymous": false,
      "inputs": [
        {
          "indexed": false,
          "internalType": "address",
          "name": "seller",
          "type": "address"
        },
        {
          "indexed": false,
          "internalType": "uint256",
          "name": "amountOfTokens",
          "type": "uint256"
        },
        {
          "indexed": false,
          "internalType": "uint256",
          "name": "amountOfETH",
          "type": "uint256"
        }
      ],
      "name": "SellTokens",
      "type": "event"
    },
    {
      "inputs": [],
      "name": "buyTokens",
      "outputs": [
        {
          "internalType": "uint256",
          "name": "tokenAmount",
          "type": "uint256"
        }
      ],
      "stateMutability": "payable",
      "type": "function"
    },
    {
      "inputs": [],
      "name": "owner",
      "outputs": [
        {
          "internalType": "address",
          "name": "",
          "type": "address"
        }
      ],
      "stateMutability": "view",
      "type": "function"
    },
    {
      "inputs": [],
      "name": "renounceOwnership",
      "outputs": [],
      "stateMutability": "nonpayable",
      "type": "function"
    },
    {
      "inputs": [],
      "name": "selfDestruct",
      "outputs": [],
      "stateMutability": "nonpayable",
      "type": "function"
    },
    {
      "inputs": [
        {
          "internalType": "uint256",
          "name": "tokenAmountToSell",
          "type": "uint256"
        }
      ],
      "name": "sellTokens",
      "outputs": [],
      "stateMutability": "nonpayable",
      "type": "function"
    },
    {
      "inputs": [
        {
          "internalType": "address",
          "name": "_accessControl",
          "type": "address"
        }
      ],
      "name": "setAccessControl",
      "outputs": [],
      "stateMutability": "nonpayable",
      "type": "function"
    },
    {
      "inputs": [
        {
          "internalType": "address",
          "name": "_archetype",
          "type": "address"
        }
      ],
      "name": "setArchetype",
      "outputs": [],
      "stateMutability": "nonpayable",
      "type": "function"
    },
    {
      "inputs": [
        {
          "internalType": "address payable",
          "name": "_dao",
          "type": "address"
        }
      ],
      "name": "setDAO",
      "outputs": [],
      "stateMutability": "nonpayable",
      "type": "function"
    },
    {
      "inputs": [
        {
          "internalType": "uint256",
          "name": "_tokensPerEth",
          "type": "uint256"
        }
      ],
      "name": "setTokensPerEth",
      "outputs": [],
      "stateMutability": "nonpayable",
      "type": "function"
    },
    {
      "inputs": [],
      "name": "tokensPerEth",
      "outputs": [
        {
          "internalType": "uint256",
          "name": "",
          "type": "uint256"
        }
      ],
      "stateMutability": "view",
      "type": "function"
    },
    {
      "inputs": [
        {
          "internalType": "address",
          "name": "newOwner",
          "type": "address"
        }
      ],
      "name": "transferOwnership",
      "outputs": [],
      "stateMutability": "nonpayable",
      "type": "function"
    },
    {
      "inputs": [
        {
          "internalType": "address",
          "name": "_withdrawer",
          "type": "address"
        }
      ],
      "name": "withdraw",
      "outputs": [],
      "stateMutability": "nonpayable",
      "type": "function"
    }
  ],
  "bytecode": "0x6080604052606460055534801561001557600080fd5b50604051610f6c380380610f6c833981016040819052610034916100dd565b61003d3361008d565b600180546001600160a01b03199081166001600160a01b03958616179091556002805482169385169390931790925560038054831691909316908117909255600480549091169091179055610142565b600080546001600160a01b038381166001600160a01b0319831681178455604051919092169283917f8be0079c531659141344cd1fd0a4f28419497f9722a3daafe3b4186f6b6457e09190a35050565b6000806000606084860312156100f257600080fd5b83516100fd8161012a565b602085015190935061010e8161012a565b604085015190925061011f8161012a565b809150509250925092565b6001600160a01b038116811461013f57600080fd5b50565b610e1b806101516000396000f3fe6080604052600436106100975760003560e01c806319129e5a1461009c5780633eb154be146100be57806351cff8d9146100de57806356238b02146100fe5780636c11bcd31461011e578063715018a61461013e5780638da5cb5b146101535780639cb8a26a1461017e578063cbdd69b514610193578063d0febe4c146101b7578063e73a914c146101bf578063f2fde38b146101df575b600080fd5b3480156100a857600080fd5b506100bc6100b7366004610c5d565b6101ff565b005b3480156100ca57600080fd5b506100bc6100d9366004610c5d565b610259565b3480156100ea57600080fd5b506100bc6100f9366004610c5d565b6102aa565b34801561010a57600080fd5b506100bc610119366004610ca3565b610335565b34801561012a57600080fd5b506100bc610139366004610ca3565b610346565b34801561014a57600080fd5b506100bc610728565b34801561015f57600080fd5b50610168610763565b6040516101759190610d10565b60405180910390f35b34801561018a57600080fd5b506100bc610772565b34801561019f57600080fd5b506101a960055481565b604051908152602001610175565b6101a96107a5565b3480156101cb57600080fd5b506100bc6101da366004610c5d565b610a70565b3480156101eb57600080fd5b506100bc6101fa366004610c5d565b610ac1565b33610208610763565b6001600160a01b0316146102375760405162461bcd60e51b815260040161022e90610d4c565b60405180910390fd5b600380546001600160a01b0319166001600160a01b0392909216919091179055565b33610262610763565b6001600160a01b0316146102885760405162461bcd60e51b815260040161022e90610d4c565b600180546001600160a01b0319166001600160a01b0392909216919091179055565b6102b46003610b61565b50479050806102fa5760405162461bcd60e51b81526020600482015260126024820152714e6f2045544820746f20776974686472617760701b604482015260640161022e565b6040516001600160a01b0383169082156108fc029083906000818181858888f19350505050158015610330573d6000803e3d6000fd5b505050565b61033f6003610b61565b5050600555565b600081116103a55760405162461bcd60e51b815260206004820152602660248201527f4e6f20746f6b656e732073656e7420746f2074686520636f6e747261637420746044820152651bc81cd95b1b60d21b606482015260840161022e565b6001546040516370a0823160e01b81526000916001600160a01b0316906370a08231906103d6903390600401610d10565b60206040518083038186803b1580156103ee57600080fd5b505afa158015610402573d6000803e3d6000fd5b505050506040513d601f19601f820116820180604052508101906104269190610cbc565b9050818110156104895760405162461bcd60e51b815260206004820152602860248201527f5573657220646f6573206e6f74206861766520656e6f75676820746f6b656e73604482015267081d1bc81cd95b1b60c21b606482015260840161022e565b6000600554836104999190610d81565b905047818110156104fe5760405162461bcd60e51b815260206004820152602960248201527f53656c6c2072657175657374206578636565647320636f6e7472616374204554604482015268482062616c616e636560b81b606482015260840161022e565b6001546040516323b872dd60e01b8152336004820152306024820152604481018690526000916001600160a01b0316906323b872dd90606401602060405180830381600087803b15801561055157600080fd5b505af1158015610565573d6000803e3d6000fd5b505050506040513d601f19601f820116820180604052508101906105899190610c81565b9050806105e65760405162461bcd60e51b815260206004820152602560248201527f5472616e73666572206f6620746f6b656e7320746f20636f6e74726163742066604482015264185a5b195960da1b606482015260840161022e565b60405133908490600081818185875af1925050503d8060008114610626576040519150601f19603f3d011682016040523d82523d6000602084013e61062b565b606091505b5050809150508061067e5760405162461bcd60e51b815260206004820152601e60248201527f5472616e73666572206f662045544820746f2075736572206661696c65640000604482015260640161022e565b84841415610721576002546040516001600160a01b03909116906106a6903390602401610d10565b60408051601f198184030181529181526020820180516001600160e01b031663150fd60b60e11b179052516106db9190610cd5565b600060405180830381855af49150503d8060008114610716576040519150601f19603f3d011682016040523d82523d6000602084013e61071b565b606091505b50909150505b5050505050565b33610731610763565b6001600160a01b0316146107575760405162461bcd60e51b815260040161022e90610d4c565b6107616000610c0d565b565b6000546001600160a01b031690565b3361077b610763565b6001600160a01b0316146107a15760405162461bcd60e51b815260040161022e90610d4c565b3380ff5b60008034116107f45760405162461bcd60e51b815260206004820152601b60248201527a139bc8115512081cd95b9d081d1bc81d1a194818dbdb9d1c9858dd602a1b604482015260640161022e565b6000600554346108049190610da3565b6001546040516370a0823160e01b81529192506000916001600160a01b03909116906370a082319061083a903090600401610d10565b60206040518083038186803b15801561085257600080fd5b505afa158015610866573d6000803e3d6000fd5b505050506040513d601f19601f8201168201806040525081019061088a9190610cbc565b9050818110156108f15760405162461bcd60e51b815260206004820152602c60248201527f436f6e747261637420646f6573206e6f74206861766520656e6f75676820746f60448201526b1ad95b9cc81d1bc81cd95b1b60a21b606482015260840161022e565b60015460405163a9059cbb60e01b8152336004820152602481018490526000916001600160a01b03169063a9059cbb90604401602060405180830381600087803b15801561093e57600080fd5b505af1158015610952573d6000803e3d6000fd5b505050506040513d601f19601f820116820180604052508101906109769190610c81565b9050806109c55760405162461bcd60e51b815260206004820181905260248201527f4661696c656420746f207472616e7366657220746f6b656e20746f2075736572604482015260640161022e565b6002546040516338db6dd360e01b81526001600160a01b03909116906338db6dd3906109f5903390600401610d10565b600060405180830381600087803b158015610a0f57600080fd5b505af1158015610a23573d6000803e3d6000fd5b5050604080513381523460208201529081018690527f0a37b72bb67eee30e09084cf386f8a17817c57f620c3ab95fb25d6a20356ec779250606001905060405180910390a1509092915050565b33610a79610763565b6001600160a01b031614610a9f5760405162461bcd60e51b815260040161022e90610d4c565b600280546001600160a01b0319166001600160a01b0392909216919091179055565b33610aca610763565b6001600160a01b031614610af05760405162461bcd60e51b815260040161022e90610d4c565b6001600160a01b038116610b555760405162461bcd60e51b815260206004820152602660248201527f4f776e61626c653a206e6577206f776e657220697320746865207a65726f206160448201526564647265737360d01b606482015260840161022e565b610b5e81610c0d565b50565b600354604051600091606091839182916001600160a01b0390911690610b8b908790602401610d24565b60408051601f198184030181529181526020820180516001600160e01b031663f83baac760e01b17905251610bc09190610cd5565b600060405180830381855af49150503d8060008114610bfb576040519150601f19603f3d011682016040523d82523d6000602084013e610c00565b606091505b5090969095509350505050565b600080546001600160a01b038381166001600160a01b0319831681178455604051919092169283917f8be0079c531659141344cd1fd0a4f28419497f9722a3daafe3b4186f6b6457e09190a35050565b600060208284031215610c6f57600080fd5b8135610c7a81610dd0565b9392505050565b600060208284031215610c9357600080fd5b81518015158114610c7a57600080fd5b600060208284031215610cb557600080fd5b5035919050565b600060208284031215610cce57600080fd5b5051919050565b6000825160005b81811015610cf65760208186018101518583015201610cdc565b81811115610d05576000828501525b509190910192915050565b6001600160a01b0391909116815260200190565b6020810160048310610d4657634e487b7160e01b600052602160045260246000fd5b91905290565b6020808252818101527f4f776e61626c653a2063616c6c6572206973206e6f7420746865206f776e6572604082015260600190565b600082610d9e57634e487b7160e01b600052601260045260246000fd5b500490565b6000816000190483118215151615610dcb57634e487b7160e01b600052601160045260246000fd5b500290565b6001600160a01b0381168114610b5e57600080fdfea26469706673582212207318c037d123ed4d298c744489ed448ac6261c9813f5774e742d9e49583a8ace64736f6c63430008070033",
  "linkReferences": {},
  "deployedLinkReferences": {}
}