{
  "_format": "hh-sol-artifact-1",
  "contractName": "AccessControl",
  "sourceName": "contracts/AccessControl.sol",
  "abi": [
    {
      "inputs": [],
      "stateMutability": "nonpayable",
      "type": "constructor"
    },
    {
      "anonymous": false,
      "inputs": [
        {
          "indexed": true,
          "internalType": "enum AccessControl.Roles",
          "name": "role",
          "type": "uint8"
        },
        {
          "indexed": true,
          "internalType": "address",
          "name": "toAddress",
          "type": "address"
        },
        {
          "indexed": false,
          "internalType": "address",
          "name": "byAddress",
          "type": "address"
        }
      ],
      "name": "CollectionRoleGranted",
      "type": "event"
    },
    {
      "anonymous": false,
      "inputs": [
        {
          "indexed": true,
          "internalType": "enum AccessControl.Roles",
          "name": "role",
          "type": "uint8"
        },
        {
          "indexed": true,
          "internalType": "address",
          "name": "toAddress",
          "type": "address"
        },
        {
          "indexed": false,
          "internalType": "address",
          "name": "byAddress",
          "type": "address"
        }
      ],
      "name": "CollectionRoleRevoked",
      "type": "event"
    },
    {
      "anonymous": false,
      "inputs": [
        {
          "indexed": true,
          "internalType": "uint256",
          "name": "tokenId",
          "type": "uint256"
        },
        {
          "indexed": true,
          "internalType": "enum AccessControl.Roles",
          "name": "role",
          "type": "uint8"
        },
        {
          "indexed": true,
          "internalType": "address",
          "name": "toAddress",
          "type": "address"
        },
        {
          "indexed": false,
          "internalType": "address",
          "name": "byAddress",
          "type": "address"
        }
      ],
      "name": "TokenRoleGranted",
      "type": "event"
    },
    {
      "anonymous": false,
      "inputs": [
        {
          "indexed": true,
          "internalType": "uint256",
          "name": "tokenId",
          "type": "uint256"
        },
        {
          "indexed": true,
          "internalType": "enum AccessControl.Roles",
          "name": "role",
          "type": "uint8"
        },
        {
          "indexed": true,
          "internalType": "address",
          "name": "toAddress",
          "type": "address"
        },
        {
          "indexed": false,
          "internalType": "address",
          "name": "byAddress",
          "type": "address"
        }
      ],
      "name": "TokenRoleRevoked",
      "type": "event"
    },
    {
      "inputs": [],
      "name": "__role",
      "outputs": [
        {
          "internalType": "enum AccessControl.Roles",
          "name": "",
          "type": "uint8"
        }
      ],
      "stateMutability": "view",
      "type": "function"
    },
    {
      "inputs": [
        {
          "internalType": "uint256",
          "name": "tokenId",
          "type": "uint256"
        },
        {
          "internalType": "address",
          "name": "newOwner",
          "type": "address"
        }
      ],
      "name": "_clearAllTokenRoles",
      "outputs": [],
      "stateMutability": "nonpayable",
      "type": "function"
    },
    {
      "inputs": [
        {
          "internalType": "uint256",
          "name": "tokenId",
          "type": "uint256"
        }
      ],
      "name": "_clearAllTokenRoles",
      "outputs": [],
      "stateMutability": "nonpayable",
      "type": "function"
    },
    {
      "inputs": [
        {
          "internalType": "uint256",
          "name": "tokenId",
          "type": "uint256"
        },
        {
          "internalType": "enum AccessControl.Roles",
          "name": "role",
          "type": "uint8"
        },
        {
          "internalType": "address",
          "name": "account",
          "type": "address"
        }
      ],
      "name": "_grantTokenRole",
      "outputs": [],
      "stateMutability": "nonpayable",
      "type": "function"
    },
    {
      "inputs": [
        {
          "internalType": "enum AccessControl.Roles",
          "name": "role",
          "type": "uint8"
        }
      ],
      "name": "getCollectionRoleMembers",
      "outputs": [
        {
          "internalType": "address[]",
          "name": "",
          "type": "address[]"
        }
      ],
      "stateMutability": "view",
      "type": "function"
    },
    {
      "inputs": [
        {
          "internalType": "uint256",
          "name": "tokenId",
          "type": "uint256"
        },
        {
          "internalType": "enum AccessControl.Roles",
          "name": "role",
          "type": "uint8"
        }
      ],
      "name": "getTokenRoleMembers",
      "outputs": [
        {
          "internalType": "address[]",
          "name": "",
          "type": "address[]"
        }
      ],
      "stateMutability": "view",
      "type": "function"
    },
    {
      "inputs": [
        {
          "internalType": "enum AccessControl.Roles",
          "name": "role",
          "type": "uint8"
        },
        {
          "internalType": "address",
          "name": "account",
          "type": "address"
        }
      ],
      "name": "grantCollectionRole",
      "outputs": [],
      "stateMutability": "nonpayable",
      "type": "function"
    },
    {
      "inputs": [
        {
          "internalType": "uint256",
          "name": "tokenId",
          "type": "uint256"
        },
        {
          "internalType": "enum AccessControl.Roles",
          "name": "role",
          "type": "uint8"
        },
        {
          "internalType": "address",
          "name": "account",
          "type": "address"
        }
      ],
      "name": "grantTokenRole",
      "outputs": [],
      "stateMutability": "nonpayable",
      "type": "function"
    },
    {
      "inputs": [
        {
          "internalType": "enum AccessControl.Roles",
          "name": "role",
          "type": "uint8"
        },
        {
          "internalType": "address",
          "name": "account",
          "type": "address"
        }
      ],
      "name": "hasCollectionRole",
      "outputs": [
        {
          "internalType": "bool",
          "name": "",
          "type": "bool"
        }
      ],
      "stateMutability": "view",
      "type": "function"
    },
    {
      "inputs": [
        {
          "internalType": "uint256",
          "name": "tokenId",
          "type": "uint256"
        },
        {
          "internalType": "enum AccessControl.Roles",
          "name": "role",
          "type": "uint8"
        },
        {
          "internalType": "address",
          "name": "account",
          "type": "address"
        }
      ],
      "name": "hasTokenRole",
      "outputs": [
        {
          "internalType": "bool",
          "name": "",
          "type": "bool"
        }
      ],
      "stateMutability": "view",
      "type": "function"
    },
    {
      "inputs": [
        {
          "internalType": "enum AccessControl.Roles",
          "name": "role",
          "type": "uint8"
        }
      ],
      "name": "requireCollectionRole",
      "outputs": [],
      "stateMutability": "view",
      "type": "function"
    },
    {
      "inputs": [
        {
          "internalType": "uint256",
          "name": "tokenId",
          "type": "uint256"
        },
        {
          "internalType": "enum AccessControl.Roles",
          "name": "role",
          "type": "uint8"
        }
      ],
      "name": "requireTokenRole",
      "outputs": [],
      "stateMutability": "view",
      "type": "function"
    },
    {
      "inputs": [
        {
          "internalType": "enum AccessControl.Roles",
          "name": "role",
          "type": "uint8"
        },
        {
          "internalType": "address",
          "name": "account",
          "type": "address"
        }
      ],
      "name": "revokeCollectionRole",
      "outputs": [],
      "stateMutability": "nonpayable",
      "type": "function"
    },
    {
      "inputs": [
        {
          "internalType": "uint256",
          "name": "tokenId",
          "type": "uint256"
        },
        {
          "internalType": "enum AccessControl.Roles",
          "name": "role",
          "type": "uint8"
        },
        {
          "internalType": "address",
          "name": "account",
          "type": "address"
        }
      ],
      "name": "revokeTokenRole",
      "outputs": [],
      "stateMutability": "nonpayable",
      "type": "function"
    },
    {
      "inputs": [
        {
          "internalType": "enum AccessControl.Roles",
          "name": "_role",
          "type": "uint8"
        }
      ],
      "name": "setE",
      "outputs": [
        {
          "internalType": "enum AccessControl.Roles",
          "name": "",
          "type": "uint8"
        }
      ],
      "stateMutability": "nonpayable",
      "type": "function"
    }
  ],
  "bytecode": "0x60806040523480156200001157600080fd5b506200001f60013362000032565b6200002c60033362000032565b6200017e565b60006200004b6001620000fd60201b620006d91760201c565b6000818152600260205260408120919250620000a6919085600381111562000077576200007762000168565b60038111156200008b576200008b62000168565b8152602001908152602001600020836200010160201b60201c565b816001600160a01b0316836003811115620000c557620000c562000168565b6040513381527fcf081ed2b728e3115904be00eb8927b2375ff3401839b37f7accfa1bb2bee15c9060200160405180910390a3505050565b5490565b6001600160a01b03811660009081526020839052604090205462000164576001828101805491820181556000818152602080822090930180546001600160a01b0319166001600160a01b0386169081179091559154918152918490526040909120555b5050565b634e487b7160e01b600052602160045260246000fd5b610c97806200018e6000396000f3fe608060405234801561001057600080fd5b50600436106100c55760003560e01c806301468deb146100ca57806323a7d8d4146100df57806328b4e045146101085780632caa46ad1461011b5780632d957aad1461012e5780632f1e8f0a14610141578063353b07a4146101615780638c3c0a4414610174578063a27d0b2714610187578063a80730471461019a578063b42dbe38146101ad578063c7887f4e146101d0578063db4abf05146101e3578063e9447250146101f6578063eb92e8b914610209575b600080fd5b6100dd6100d8366004610b15565b610216565b005b6100f26100ed366004610a61565b610231565b6040516100ff9190610bb2565b60405180910390f35b6100dd610116366004610b15565b610262565b6100dd610129366004610acf565b610319565b6100dd61013c366004610a83565b610332565b61015461014f366004610af2565b610346565b6040516100ff9190610b65565b61015461016f366004610a61565b610404565b6100dd610182366004610a83565b6104b7565b6100dd610195366004610b15565b6104cb565b6100dd6101a8366004610a61565b6104e1565b6101c06101bb366004610b15565b610561565b60405190151581526020016100ff565b6100dd6101de366004610af2565b6105db565b6100dd6101f1366004610ab6565b610650565b6101c0610204366004610a83565b610667565b6000546100f29060ff1681565b6102218360036105db565b61022c8383836106dd565b505050565b600080548290829060ff1916600183600381111561025157610251610c1f565b02179055505060005460ff16919050565b60008381526003602081815260408084205460048352818520818652909252832090926102bf92869081111561029a5761029a610c1f565b60038111156102ab576102ab610c1f565b815260200190815260200160002083610786565b816001600160a01b03168360038111156102db576102db610c1f565b857f0bf5a13b362503fcc74b8b9b1598aba2f3a9af85d05ba7978f7e9f447f22c2393360405161030b9190610b51565b60405180910390a450505050565b61032282610650565b61032e82600383610262565b5050565b61033c60036104e1565b61032e82826107e9565b6000828152600360208181526040808420546004835281852081865290925283206060939192909190859081111561038057610380610c1f565b600381111561039157610391610c1f565b81526020019081526020016000206001018054806020026020016040519081016040528092919081815260200182805480156103f657602002820191906000526020600020905b81546001600160a01b031681526001909101906020018083116103d8575b505050505091505092915050565b6060600061041160015490565b600081815260026020526040812091925084600381111561043457610434610c1f565b600381111561044557610445610c1f565b81526020019081526020016000206001018054806020026020016040519081016040528092919081815260200182805480156104aa57602002820191906000526020600020905b81546001600160a01b0316815260019091019060200180831161048c575b5050505050915050919050565b6104c160036104e1565b61032e8282610874565b6104d68360036105db565b61022c838383610262565b6104eb8133610667565b806104fc57506104fc600133610667565b61055e5760405162461bcd60e51b815260206004820152602860248201527f416363657373436f6e74726f6c3a206d757374206861766520636f6c6c656374604482015267696f6e20726f6c6560c01b60648201526084015b60405180910390fd5b50565b60008381526003602081815260408084205460048352818520818652909252832090918390869081111561059757610597610c1f565b60038111156105a8576105a8610c1f565b8152602080820192909252604090810160009081206001600160a01b038716825290925290205415159150509392505050565b6105e6828233610561565b806105f857506105f882600133610561565b61032e5760405162461bcd60e51b815260206004820152602360248201527f416363657373436f6e74726f6c3a206d757374206861766520746f6b656e20726044820152626f6c6560e81b6064820152608401610555565b600090815260036020526040902080546001019055565b60008061067360015490565b600081815260026020526040812091925085600381111561069657610696610c1f565b60038111156106a7576106a7610c1f565b8152602080820192909252604090810160009081206001600160a01b0387168252909252902054151591505092915050565b5490565b600083815260036020818152604080842054600483528185208186529092528320909261073a92869081111561071557610715610c1f565b600381111561072657610726610c1f565b8152602001908152602001600020836108f2565b816001600160a01b031683600381111561075657610756610c1f565b857fe52d746e4c78c98c6bfa291b273406905c3e8550b7d911a6bea686368c2dc79d3360405161030b9190610b51565b6001600160a01b03811660009081526020839052604090205461032e576001828101805491820181556000818152602080822090930180546001600160a01b0319166001600160a01b039590951694851790559054928152929052604090912055565b60006107f460015490565b600081815260026020526040812091925061081c919085600381111561029a5761029a610c1f565b816001600160a01b031683600381111561083857610838610c1f565b7fcf081ed2b728e3115904be00eb8927b2375ff3401839b37f7accfa1bb2bee15c336040516108679190610b51565b60405180910390a3505050565b600061087f60015490565b60008181526002602052604081209192506108a7919085600381111561071557610715610c1f565b816001600160a01b03168360038111156108c3576108c3610c1f565b7faeff57f0f5e4d3d10a37d4a70fde8ed67a95e67b251d5c512c0ea98c380d2f95336040516108679190610b51565b6001600160a01b0381166000908152602083905260409020541561032e576001600160a01b03811660009081526020839052604081205461093590600190610bf2565b60018481015491925060009161094b9190610bf2565b9050600084600101828154811061096457610964610c4b565b6000918252602090912001546001860180546001600160a01b03909216925082918590811061099557610995610c4b565b600091825260209091200180546001600160a01b0319166001600160a01b03929092169190911790556109c9836001610bda565b6001600160a01b038216600090815260208790526040902055600185018054806109f5576109f5610c35565b60008281526020808220830160001990810180546001600160a01b03191690559092019092556001600160a01b038616825286905260408120555050505050565b80356001600160a01b0381168114610a4d57600080fd5b919050565b803560048110610a4d57600080fd5b600060208284031215610a7357600080fd5b610a7c82610a52565b9392505050565b60008060408385031215610a9657600080fd5b610a9f83610a52565b9150610aad60208401610a36565b90509250929050565b600060208284031215610ac857600080fd5b5035919050565b60008060408385031215610ae257600080fd5b82359150610aad60208401610a36565b60008060408385031215610b0557600080fd5b82359150610aad60208401610a52565b600080600060608486031215610b2a57600080fd5b83359250610b3a60208501610a52565b9150610b4860408501610a36565b90509250925092565b6001600160a01b0391909116815260200190565b6020808252825182820181905260009190848201906040850190845b81811015610ba65783516001600160a01b031683529284019291840191600101610b81565b50909695505050505050565b6020810160048310610bd457634e487b7160e01b600052602160045260246000fd5b91905290565b60008219821115610bed57610bed610c09565b500190565b600082821015610c0457610c04610c09565b500390565b634e487b7160e01b600052601160045260246000fd5b634e487b7160e01b600052602160045260246000fd5b634e487b7160e01b600052603160045260246000fd5b634e487b7160e01b600052603260045260246000fdfea2646970667358221220bf9eabb5d299ec8068f46aff630b31d5ed36f78f29817c0284965b23e91e33f364736f6c63430008070033",
  "linkReferences": {},
  "deployedLinkReferences": {}
}