{
  "_format": "hh-sol-artifact-1",
  "contractName": "Archetype",
  "sourceName": "contracts/Archetype.sol",
  "abi": [
    {
      "inputs": [
        {
          "internalType": "uint256",
          "name": "initialSupply",
          "type": "uint256"
        }
      ],
      "stateMutability": "nonpayable",
      "type": "constructor"
    },
    {
      "anonymous": false,
      "inputs": [
        {
          "indexed": true,
          "internalType": "address",
          "name": "owner",
          "type": "address"
        },
        {
          "indexed": true,
          "internalType": "address",
          "name": "spender",
          "type": "address"
        },
        {
          "indexed": false,
          "internalType": "uint256",
          "name": "value",
          "type": "uint256"
        }
      ],
      "name": "Approval",
      "type": "event"
    },
    {
      "anonymous": false,
      "inputs": [
        {
          "indexed": true,
          "internalType": "address",
          "name": "previousOwner",
          "type": "address"
        },
        {
          "indexed": true,
          "internalType": "address",
          "name": "newOwner",
          "type": "address"
        }
      ],
      "name": "OwnershipTransferred",
      "type": "event"
    },
    {
      "anonymous": false,
      "inputs": [
        {
          "indexed": true,
          "internalType": "address",
          "name": "from",
          "type": "address"
        },
        {
          "indexed": true,
          "internalType": "address",
          "name": "to",
          "type": "address"
        },
        {
          "indexed": false,
          "internalType": "uint256",
          "name": "value",
          "type": "uint256"
        }
      ],
      "name": "Transfer",
      "type": "event"
    },
    {
      "inputs": [
        {
          "internalType": "address",
          "name": "owner",
          "type": "address"
        },
        {
          "internalType": "address",
          "name": "spender",
          "type": "address"
        }
      ],
      "name": "allowance",
      "outputs": [
        {
          "internalType": "uint256",
          "name": "",
          "type": "uint256"
        }
      ],
      "stateMutability": "view",
      "type": "function"
    },
    {
      "inputs": [
        {
          "internalType": "address",
          "name": "spender",
          "type": "address"
        },
        {
          "internalType": "uint256",
          "name": "amount",
          "type": "uint256"
        }
      ],
      "name": "approve",
      "outputs": [
        {
          "internalType": "bool",
          "name": "",
          "type": "bool"
        }
      ],
      "stateMutability": "nonpayable",
      "type": "function"
    },
    {
      "inputs": [
        {
          "internalType": "address",
          "name": "account",
          "type": "address"
        }
      ],
      "name": "balanceOf",
      "outputs": [
        {
          "internalType": "uint256",
          "name": "",
          "type": "uint256"
        }
      ],
      "stateMutability": "view",
      "type": "function"
    },
    {
      "inputs": [
        {
          "internalType": "address",
          "name": "account",
          "type": "address"
        },
        {
          "internalType": "uint256",
          "name": "amount",
          "type": "uint256"
        }
      ],
      "name": "burn",
      "outputs": [],
      "stateMutability": "nonpayable",
      "type": "function"
    },
    {
      "inputs": [],
      "name": "decimals",
      "outputs": [
        {
          "internalType": "uint8",
          "name": "",
          "type": "uint8"
        }
      ],
      "stateMutability": "view",
      "type": "function"
    },
    {
      "inputs": [
        {
          "internalType": "address",
          "name": "spender",
          "type": "address"
        },
        {
          "internalType": "uint256",
          "name": "subtractedValue",
          "type": "uint256"
        }
      ],
      "name": "decreaseAllowance",
      "outputs": [
        {
          "internalType": "bool",
          "name": "",
          "type": "bool"
        }
      ],
      "stateMutability": "nonpayable",
      "type": "function"
    },
    {
      "inputs": [
        {
          "internalType": "address",
          "name": "spender",
          "type": "address"
        },
        {
          "internalType": "uint256",
          "name": "addedValue",
          "type": "uint256"
        }
      ],
      "name": "increaseAllowance",
      "outputs": [
        {
          "internalType": "bool",
          "name": "",
          "type": "bool"
        }
      ],
      "stateMutability": "nonpayable",
      "type": "function"
    },
    {
      "inputs": [],
      "name": "name",
      "outputs": [
        {
          "internalType": "string",
          "name": "",
          "type": "string"
        }
      ],
      "stateMutability": "view",
      "type": "function"
    },
    {
      "inputs": [],
      "name": "owner",
      "outputs": [
        {
          "internalType": "address",
          "name": "",
          "type": "address"
        }
      ],
      "stateMutability": "view",
      "type": "function"
    },
    {
      "inputs": [],
      "name": "renounceOwnership",
      "outputs": [],
      "stateMutability": "nonpayable",
      "type": "function"
    },
    {
      "inputs": [],
      "name": "symbol",
      "outputs": [
        {
          "internalType": "string",
          "name": "",
          "type": "string"
        }
      ],
      "stateMutability": "view",
      "type": "function"
    },
    {
      "inputs": [],
      "name": "totalSupply",
      "outputs": [
        {
          "internalType": "uint256",
          "name": "",
          "type": "uint256"
        }
      ],
      "stateMutability": "view",
      "type": "function"
    },
    {
      "inputs": [
        {
          "internalType": "address",
          "name": "to",
          "type": "address"
        },
        {
          "internalType": "uint256",
          "name": "amount",
          "type": "uint256"
        }
      ],
      "name": "transfer",
      "outputs": [
        {
          "internalType": "bool",
          "name": "",
          "type": "bool"
        }
      ],
      "stateMutability": "nonpayable",
      "type": "function"
    },
    {
      "inputs": [
        {
          "internalType": "address",
          "name": "from",
          "type": "address"
        },
        {
          "internalType": "address",
          "name": "to",
          "type": "address"
        },
        {
          "internalType": "uint256",
          "name": "amount",
          "type": "uint256"
        }
      ],
      "name": "transferFrom",
      "outputs": [
        {
          "internalType": "bool",
          "name": "",
          "type": "bool"
        }
      ],
      "stateMutability": "nonpayable",
      "type": "function"
    },
    {
      "inputs": [
        {
          "internalType": "address",
          "name": "newOwner",
          "type": "address"
        }
      ],
      "name": "transferOwnership",
      "outputs": [],
      "stateMutability": "nonpayable",
      "type": "function"
    }
  ],
  "bytecode": "0x60806040523480156200001157600080fd5b5060405162000f7c38038062000f7c8339810160408190526200003491620002b5565b6040518060400160405280600981526020016841726368657479706560b81b8152506040518060400160405280600381526020016241524b60e81b8152506200008c62000086620000d360201b60201c565b620000d7565b8151620000a19060049060208501906200020f565b508051620000b79060059060208401906200020f565b505050620000cc33826200012760201b60201c565b5062000333565b3390565b600080546001600160a01b038381166001600160a01b0319831681178455604051919092169283917f8be0079c531659141344cd1fd0a4f28419497f9722a3daafe3b4186f6b6457e09190a35050565b6001600160a01b038216620001825760405162461bcd60e51b815260206004820152601f60248201527f45524332303a206d696e7420746f20746865207a65726f206164647265737300604482015260640160405180910390fd5b8060036000828254620001969190620002cf565b90915550506001600160a01b03821660009081526001602052604081208054839290620001c5908490620002cf565b90915550506040518181526001600160a01b038316906000907fddf252ad1be2c89b69c2b068fc378daa952ba7f163c4a11628f55a4df523b3ef9060200160405180910390a35050565b8280546200021d90620002f6565b90600052602060002090601f0160209004810192826200024157600085556200028c565b82601f106200025c57805160ff19168380011785556200028c565b828001600101855582156200028c579182015b828111156200028c5782518255916020019190600101906200026f565b506200029a9291506200029e565b5090565b5b808211156200029a57600081556001016200029f565b600060208284031215620002c857600080fd5b5051919050565b60008219821115620002f157634e487b7160e01b600052601160045260246000fd5b500190565b600181811c908216806200030b57607f821691505b602082108114156200032d57634e487b7160e01b600052602260045260246000fd5b50919050565b610c3980620003436000396000f3fe608060405234801561001057600080fd5b50600436106100c55760003560e01c806306fdde03146100ca578063095ea7b3146100e857806318160ddd1461010b57806323b872dd1461011d578063313ce56714610130578063395093511461013f57806370a0823114610152578063715018a61461017b5780638da5cb5b1461018557806395d89b41146101a55780639dc29fac146101ad578063a457c2d7146101c0578063a9059cbb146101d3578063dd62ed3e146101e6578063f2fde38b146101f9575b600080fd5b6100d261020c565b6040516100df9190610ad9565b60405180910390f35b6100fb6100f6366004610aaf565b61029e565b60405190151581526020016100df565b6003545b6040519081526020016100df565b6100fb61012b366004610a73565b6102b6565b604051601281526020016100df565b6100fb61014d366004610aaf565b6102da565b61010f610160366004610a1e565b6001600160a01b031660009081526001602052604090205490565b610183610319565b005b61018d61035d565b6040516001600160a01b0390911681526020016100df565b6100d261036c565b6101836101bb366004610aaf565b61037b565b6100fb6101ce366004610aaf565b6103b8565b6100fb6101e1366004610aaf565b61044a565b61010f6101f4366004610a40565b610458565b610183610207366004610a1e565b610483565b60606004805461021b90610b92565b80601f016020809104026020016040519081016040528092919081815260200182805461024790610b92565b80156102945780601f1061026957610100808354040283529160200191610294565b820191906000526020600020905b81548152906001019060200180831161027757829003601f168201915b5050505050905090565b6000336102ac818585610523565b5060019392505050565b6000336102c4858285610648565b6102cf8585856106c2565b506001949350505050565b3360008181526002602090815260408083206001600160a01b03871684529091528120549091906102ac9082908690610314908790610b63565b610523565b3361032261035d565b6001600160a01b0316146103515760405162461bcd60e51b815260040161034890610b2e565b60405180910390fd5b61035b600061087e565b565b6000546001600160a01b031690565b60606005805461021b90610b92565b3361038461035d565b6001600160a01b0316146103aa5760405162461bcd60e51b815260040161034890610b2e565b6103b482826108ce565b5050565b3360008181526002602090815260408083206001600160a01b03871684529091528120549091908381101561043d5760405162461bcd60e51b815260206004820152602560248201527f45524332303a2064656372656173656420616c6c6f77616e63652062656c6f77604482015264207a65726f60d81b6064820152608401610348565b6102cf8286868403610523565b6000336102ac8185856106c2565b6001600160a01b03918216600090815260026020908152604080832093909416825291909152205490565b3361048c61035d565b6001600160a01b0316146104b25760405162461bcd60e51b815260040161034890610b2e565b6001600160a01b0381166105175760405162461bcd60e51b815260206004820152602660248201527f4f776e61626c653a206e6577206f776e657220697320746865207a65726f206160448201526564647265737360d01b6064820152608401610348565b6105208161087e565b50565b6001600160a01b0383166105855760405162461bcd60e51b8152602060048201526024808201527f45524332303a20617070726f76652066726f6d20746865207a65726f206164646044820152637265737360e01b6064820152608401610348565b6001600160a01b0382166105e65760405162461bcd60e51b815260206004820152602260248201527f45524332303a20617070726f766520746f20746865207a65726f206164647265604482015261737360f01b6064820152608401610348565b6001600160a01b0383811660008181526002602090815260408083209487168084529482529182902085905590518481527f8c5be1e5ebec7d5bd14f71427d1e84f3dd0314c0f7b2291e5b200ac8c7c3b92591015b60405180910390a3505050565b60006106548484610458565b905060001981146106bc57818110156106af5760405162461bcd60e51b815260206004820152601d60248201527f45524332303a20696e73756666696369656e7420616c6c6f77616e63650000006044820152606401610348565b6106bc8484848403610523565b50505050565b6001600160a01b0383166107265760405162461bcd60e51b815260206004820152602560248201527f45524332303a207472616e736665722066726f6d20746865207a65726f206164604482015264647265737360d81b6064820152608401610348565b6001600160a01b0382166107885760405162461bcd60e51b815260206004820152602360248201527f45524332303a207472616e7366657220746f20746865207a65726f206164647260448201526265737360e81b6064820152608401610348565b6001600160a01b038316600090815260016020526040902054818110156108005760405162461bcd60e51b815260206004820152602660248201527f45524332303a207472616e7366657220616d6f756e7420657863656564732062604482015265616c616e636560d01b6064820152608401610348565b6001600160a01b03808516600090815260016020526040808220858503905591851681529081208054849290610837908490610b63565b92505081905550826001600160a01b0316846001600160a01b0316600080516020610be48339815191528460405161087191815260200190565b60405180910390a36106bc565b600080546001600160a01b038381166001600160a01b0319831681178455604051919092169283917f8be0079c531659141344cd1fd0a4f28419497f9722a3daafe3b4186f6b6457e09190a35050565b6001600160a01b03821661092e5760405162461bcd60e51b815260206004820152602160248201527f45524332303a206275726e2066726f6d20746865207a65726f206164647265736044820152607360f81b6064820152608401610348565b6001600160a01b038216600090815260016020526040902054818110156109a25760405162461bcd60e51b815260206004820152602260248201527f45524332303a206275726e20616d6f756e7420657863656564732062616c616e604482015261636560f01b6064820152608401610348565b6001600160a01b03831660009081526001602052604081208383039055600380548492906109d1908490610b7b565b90915550506040518281526000906001600160a01b03851690600080516020610be48339815191529060200161063b565b80356001600160a01b0381168114610a1957600080fd5b919050565b600060208284031215610a3057600080fd5b610a3982610a02565b9392505050565b60008060408385031215610a5357600080fd5b610a5c83610a02565b9150610a6a60208401610a02565b90509250929050565b600080600060608486031215610a8857600080fd5b610a9184610a02565b9250610a9f60208501610a02565b9150604084013590509250925092565b60008060408385031215610ac257600080fd5b610acb83610a02565b946020939093013593505050565b600060208083528351808285015260005b81811015610b0657858101830151858201604001528201610aea565b81811115610b18576000604083870101525b50601f01601f1916929092016040019392505050565b6020808252818101527f4f776e61626c653a2063616c6c6572206973206e6f7420746865206f776e6572604082015260600190565b60008219821115610b7657610b76610bcd565b500190565b600082821015610b8d57610b8d610bcd565b500390565b600181811c90821680610ba657607f821691505b60208210811415610bc757634e487b7160e01b600052602260045260246000fd5b50919050565b634e487b7160e01b600052601160045260246000fdfeddf252ad1be2c89b69c2b068fc378daa952ba7f163c4a11628f55a4df523b3efa264697066735822122054bbebd834d8087ce453c24525e6293ae62e6af482cfc824a5b1891cb360203064736f6c63430008070033",
  "linkReferences": {},
  "deployedLinkReferences": {}
}