{
  "_format": "hh-sol-artifact-1",
  "contractName": "Marketplace",
  "sourceName": "contracts/MaketPlace.sol",
  "abi": [
    {
      "anonymous": false,
      "inputs": [
        {
          "indexed": true,
          "internalType": "address",
          "name": "previousOwner",
          "type": "address"
        },
        {
          "indexed": true,
          "internalType": "address",
          "name": "newOwner",
          "type": "address"
        }
      ],
      "name": "OwnershipTransferred",
      "type": "event"
    },
    {
      "anonymous": false,
      "inputs": [
        {
          "indexed": false,
          "internalType": "address",
          "name": "account",
          "type": "address"
        }
      ],
      "name": "Paused",
      "type": "event"
    },
    {
      "anonymous": false,
      "inputs": [
        {
          "indexed": false,
          "internalType": "address",
          "name": "account",
          "type": "address"
        }
      ],
      "name": "Unpaused",
      "type": "event"
    },
    {
      "inputs": [],
      "name": "initialize",
      "outputs": [],
      "stateMutability": "nonpayable",
      "type": "function"
    },
    {
      "inputs": [],
      "name": "owner",
      "outputs": [
        {
          "internalType": "address",
          "name": "",
          "type": "address"
        }
      ],
      "stateMutability": "view",
      "type": "function"
    },
    {
      "inputs": [],
      "name": "paused",
      "outputs": [
        {
          "internalType": "bool",
          "name": "",
          "type": "bool"
        }
      ],
      "stateMutability": "view",
      "type": "function"
    },
    {
      "inputs": [],
      "name": "renounceOwnership",
      "outputs": [],
      "stateMutability": "nonpayable",
      "type": "function"
    },
    {
      "inputs": [
        {
          "internalType": "address",
          "name": "nftAddress",
          "type": "address"
        },
        {
          "internalType": "uint256",
          "name": "tokenId",
          "type": "uint256"
        }
      ],
      "name": "transferFrom",
      "outputs": [],
      "stateMutability": "payable",
      "type": "function"
    },
    {
      "inputs": [
        {
          "internalType": "address",
          "name": "nftAddress",
          "type": "address"
        },
        {
          "internalType": "uint256",
          "name": "tokenId",
          "type": "uint256"
        }
      ],
      "name": "transferFromERC20",
      "outputs": [],
      "stateMutability": "nonpayable",
      "type": "function"
    },
    {
      "inputs": [
        {
          "internalType": "address",
          "name": "newOwner",
          "type": "address"
        }
      ],
      "name": "transferOwnership",
      "outputs": [],
      "stateMutability": "nonpayable",
      "type": "function"
    }
  ],
  "bytecode": "0x608060405234801561001057600080fd5b5061001a3361002c565b6033805460ff60a01b1916905561007e565b603380546001600160a01b038381166001600160a01b0319831681179093556040519116919082907f8be0079c531659141344cd1fd0a4f28419497f9722a3daafe3b4186f6b6457e090600090a35050565b6104f78061008d6000396000f3fe6080604052600436106100605760003560e01c806301c6adc3146100655780635c975abb1461007a578063715018a6146100a95780638129fc1c146100be5780638da5cb5b146100d3578063bd31ed1f14610100578063f2fde38b14610120575b600080fd5b610078610073366004610449565b610140565b005b34801561008657600080fd5b50603354600160a01b900460ff1660405190151581526020015b60405180910390f35b3480156100b557600080fd5b506100786101a9565b3480156100ca57600080fd5b506100786101ed565b3480156100df57600080fd5b506100e86102aa565b6040516001600160a01b0390911681526020016100a0565b34801561010c57600080fd5b5061007861011b366004610449565b6102b9565b34801561012c57600080fd5b5061007861013b366004610427565b610320565b60405163a6a7948960e01b815282906001600160a01b0382169063a6a794899034906101729033908790600401610473565b6000604051808303818588803b15801561018b57600080fd5b505af115801561019f573d6000803e3d6000fd5b5050505050505050565b336101b26102aa565b6001600160a01b0316146101e15760405162461bcd60e51b81526004016101d89061048c565b60405180910390fd5b6101eb60006103b9565b565b600054610100900460ff16806102025750303b155b80610210575060005460ff16155b6102735760405162461bcd60e51b815260206004820152602e60248201527f436f6e747261637420696e7374616e63652068617320616c726561647920626560448201526d195b881a5b9a5d1a585b1a5e995960921b60648201526084016101d8565b600054610100900460ff16158015610295576000805461ffff19166101011790555b80156102a7576000805461ff00191690555b50565b6033546001600160a01b031690565b60405163a61b174760e01b815282906001600160a01b0382169063a61b1747906102e99033908690600401610473565b600060405180830381600087803b15801561030357600080fd5b505af1158015610317573d6000803e3d6000fd5b50505050505050565b336103296102aa565b6001600160a01b03161461034f5760405162461bcd60e51b81526004016101d89061048c565b6001600160a01b0381166103b45760405162461bcd60e51b815260206004820152602660248201527f4f776e61626c653a206e6577206f776e657220697320746865207a65726f206160448201526564647265737360d01b60648201526084016101d8565b6102a7815b603380546001600160a01b038381166001600160a01b0319831681179093556040519116919082907f8be0079c531659141344cd1fd0a4f28419497f9722a3daafe3b4186f6b6457e090600090a35050565b80356001600160a01b038116811461042257600080fd5b919050565b60006020828403121561043957600080fd5b6104428261040b565b9392505050565b6000806040838503121561045c57600080fd5b6104658361040b565b946020939093013593505050565b6001600160a01b03929092168252602082015260400190565b6020808252818101527f4f776e61626c653a2063616c6c6572206973206e6f7420746865206f776e657260408201526060019056fea264697066735822122049fc135df9ba2921158c6aff45b1d31ebb4f7432efbfb6569e9c6d75175b4cf864736f6c63430008070033",
  "linkReferences": {},
  "deployedLinkReferences": {}
}